:020000040800F2
:100000000428002085080008FD080008FD080008F5
:10001000FD080008FD080008FD08000800000000B9
:10002000000000000000000000000000E91E0008C1
:10003000FD08000800000000052000085520000809
:10004000FD080008B9240008FD080008FD080008A4
:10005000FD080008FD080008891C0008A11C000814
:10006000B91C0008D11C0008FD080008FD080008A4
:10007000FD080008FD080008FD080008FD0800084C
:10008000FD080008FD080008FD080008FD0800083C
:10009000FD080008FD080008FD080008FD0800082C
:1000A000FD080008FD080008FD080008FD0800081C
:1000B000E50A0008FD090008150B0008FD08000806
:1000C000FD080008FD080008FD080008FD080008FC
:1000D000FD080008FD080008FD080008F5030008F9
:1000E000FD080008FD080008FD080008FD080008DC
:1000F000FD080008FD080008FD080008FD080008CC
:10010000FD080008FD080008FD080008FD080008BB
:10011000FD080008FD080008FD080008FD080008AB
:10012000FD080008FD080008FD080008FD0800089B
:10013000FD080008FD080008FD080008FD0800088B
:10014000FD080008FD080008FD080008FD0800087B
:10015000FD080008FD080008FD080008FD0800086B
:10016000FD080008FD080008FD080008FD0800085B
:10017000FD080008FD080008FD080008FD0800084B
:10018000FD080008FD08000890B484B000AF0246E6
:100190000B46FA71BB714FF00003FB60BB7903F0B3
:1001A00003034FEA83034FF00F0202FA03F3FB60ED
:1001B0004FF46053C4F20103BA794FEA9202D2B20B
:1001C00010464FF46052C4F20102B9794FEA91012E
:1001D000C9B201F1020152F821201146FA686FEA12
:1001E0000202114000F1020243F822104FF4605362
:1001F000C4F20103BA794FEA9202D2B210464FF428
:100200006052C4F20102B9794FEA9101C9B201F119
:10021000020152F821201146FC79BA7902F003025A
:100220004FEA820204FA02F2114300F1020243F89B
:10023000221007F11007BD4690BC704780B487B00C
:1002400000AF786013460A467A807B704FF0000357
:100250003B614FF00003FB604FF00003BB604FF0C9
:1002600000037B617B687B617B88DBB24FEA5313C1
:10027000DBB23B617B8803F01F03FB60FB684FF040
:10028000010202FA03F3BB603B69012B04D17B69D5
:1002900003F10C037B610BE03B69022B04D17B690A
:1002A00003F110037B6103E07B6903F114037B61BD
:1002B0007B78002B07D07B697A691168BA6841EABC
:1002C00002021A6008E07B697A691168BA686FEA0D
:1002D000020201EA02021A6007F11C07BD4680BC57
:1002E000704700BF80B487B000AF78600B467B805A
:1002F0004FF00003FB604FF000037B614FF0000301
:10030000BB604FF00003FB747B88DBB24FEA5313F2
:10031000DBB2BB607B8803F01F037B617B694FF01E
:10032000010202FA03F37B61BB68012B07D17B68F2
:100330009B899BB27A6902EA03037B6111E0BB6887
:10034000022B07D17B681B8A9BB27A6902EA0303FE
:100350007B6106E07B689B8A9BB27A6902EA0303B1
:100360007B617B884FEA13239BB2FB60FB684FF0F5
:10037000010202FA03F3FB607B681B889BB2FA68F8
:1003800002EA0303FB607B69002B06D0FB68002BAD
:1003900003D04FF00103FB7402E04FF00003FB7445
:1003A000FB7C184607F11C07BD4680BC704700BFA8
:1003B00080B485B000AF78600B467B804FF00003BF
:1003C000FB814FF00003BB817B884FEA1323FB8145
:1003D000FB894FF0010202FA03F3BB81BB896FEA8C
:1003E00003039AB27B681A8007F11407BD4680BCEC
:1003F000704700BF80B500AF40F26403C2F2000353
:100400004FF000021A604FF49040C4F2000040F236
:100410002551FFF767FF0346002B00F061814FF481
:100420009040C4F2000040F22551FFF7C1FF4FF4A5
:100430009043C4F200039B889BB2DAB240F24703B8
:10044000C2F200031A7040F24803C2F200031B78A4
:10045000002B00F04481012B40F0428140F2470321
:10046000C2F200031B78292B29D0D72B02D0002BF6
:1004700075D0A1E041F67963C2F200031B781A46F9
:1004800040F24703C2F20003197841F67853C2F2F2
:100490000003995441F67963C2F200031B7803F11B
:1004A0000103DAB241F67963C2F200031A7041F631
:1004B0008973C2F200034FF001021A70A7E041F6FF
:1004C0008973C2F200031B78012B23D141F67853C4
:1004D000C2F200034FF000021A7041F67853C2F2E4
:1004E00000034FF0D7025A7041F67853C2F200036E
:1004F0004FF029029A7041F68A73C2F200034FF05E
:1005000001021A7041F67963C2F200034FF0030250
:100510001A701CE041F67963C2F200031B781A4698
:1005200040F24703C2F20003197841F67853C2F251
:100530000003995441F67963C2F200031B7803F17A
:100540000103DAB241F67963C2F200031A7041F690
:100550008973C2F200034FF000021A7057E041F6AF
:100560008973C2F200031B78012B07D141F689730E
:10057000C2F200034FF000021A7048E041F67963BE
:10058000C2F200031B781A4640F24703C2F200038E
:10059000197841F67853C2F20003995441F6796311
:1005A000C2F200031B7803F10103DAB241F679636A
:1005B000C2F200031A702AE041F68A73C2F2000305
:1005C0001B78002B23D041F67963C2F200031B781D
:1005D0001A4640F24703C2F20003197841F67853F5
:1005E000C2F20003995441F67963C2F200031B780A
:1005F00003F10103DAB241F67963C2F200031A7023
:1006000041F68973C2F200034FF000021A7041F6FE
:100610007963C2F200031B78062B47D941F6796350
:10062000C2F200031B781A4640F26003C2F20003D4
:100630001B7803F106039A4252D14FF49040C4F262
:10064000000040F225514FF00002FFF7F7FD41F6A0
:100650008473C2F200031B6818464FF0000140F299
:100660006402C2F200024FF0000301F03DFB40F2D1
:100670006403C2F200031B68002B08D040F264033D
:10068000C2F200031B68002B01D001F07DFC41F693
:100690008973C2F200034FF000021A7041F68A73A8
:1006A000C2F200034FF000021A7019E041F67963BC
:1006B000C2F200031B78062B12D141F67963C2F215
:1006C00000031B7803F1FF3241F67853C2F20003B6
:1006D0009A5C40F26003C2F200031A7000E000BFAF
:1006E0004FF49040C4F2000040F22661FFF7FAFD9B
:1006F0000346002B00F0BC804FF49040C4F2000091
:1007000040F22661FFF754FE41F67863C2F200031F
:100710001A7841F68163C2F200031B789A426CD2C8
:1007200041F67863C2F200031B78022B1DD84FF408
:100730009043C4F2000341F67862C2F200021278DC
:10074000114641F68462C2F20002525C9A8041F680
:100750007863C2F200031B7803F10103DAB241F6B9
:100760007863C2F200031A7082E041F68973C2F224
:1007700000031B78002B31D141F67863C2F20003ED
:100780001B781A4641F68463C2F200039B5CD72BA8
:1007900006D141F68973C2F200034FF001021A70CC
:1007A0004FF49043C4F2000341F67862C2F20002B3
:1007B0001278114641F68462C2F20002525C9A80BD
:1007C00041F67863C2F200031B7803F10103DAB249
:1007D00041F67863C2F200031A7049E04FF4904387
:1007E000C4F200034FF000029A8041F68973C2F20E
:1007F00000034FF000021A703AE041F67863C2F24B
:1008000000034FF000021A7041F67963C2F2000350
:100810004FF000021A7041F68973C2F200034FF0E4
:1008200000021A704FF49040C4F2000040F22551CB
:100830004FF00102FFF702FD4FF48063C4F20203A0
:100840004FF48062C4F20202528B92B242F0020272
:1008500092B25A834FF48063C4F202034FF4806271
:10086000C4F20202528B92B242F0040292B25A8354
:1008700040F26403C2F200031B68002B01D001F0B8
:1008800083FB80BD80B582B000AF42F2CC73C0F66E
:1008900000037B6040F20003C2F200033B600BE008
:1008A0007B681A683B681A603B6803F104033B608D
:1008B0007B6803F104037B603A6840F25C03C2F298
:1008C00000039A42ECD30A480A494FF000028842DA
:1008D000B8BF40F8042BFADBDFF81C00016841F4D4
:1008E0007001016000F00EF807F10807BD4680BDF9
:1008F000600000200420002088ED00E080B400AFFC
:10090000FEE700BF80B500AF00F0D4FF01F0E2F8D1
:1009100000F00EFAFEE700BF80B400AFFEE700BFB4
:1009200080B483B000AF78603960FEE780B582B0F4
:1009300000AF01F099FD03467B607B6807F1080773
:10094000BD4680BD80B483B000AF78600B46FB70BD
:10095000FB78002B0ED04FF46053C4F202034FF427
:100960006052C4F20202126B11467A6841EA020236
:100970001A630FE04FF46053C4F202034FF4605265
:10098000C4F20202126B11467A686FEA020201EAAF
:1009900002021A6307F10C07BD4680BC704700BF16
:1009A00080B483B000AF78600B46FB70FB78002BFF
:1009B0000ED04FF46053C4F202034FF46052C4F2FD
:1009C0000202526C11467A6841EA02025A640FE050
:1009D0004FF46053C4F202034FF46052C4F20202B7
:1009E000526C11467A686FEA020201EA02025A6406
:1009F00007F10C07BD4680BC704700BF80B400AF54
:100A00004FF48063C4F200034FF6FE721A8241F67F
:100A10008C73C2F2000393F82030DBB21A464FF019
:100A200080435B6A194640F26C03C2F200031B6804
:100A3000C91841F68C73C2F2000343F8221041F644
:100A40008C73C2F2000393F82030DBB203F1010390
:100A5000DAB241F68C73C2F2000383F8202041F62B
:100A60008C73C2F2000393F82030DBB203F007036B
:100A7000DAB241F68C73C2F2000383F8202040F210
:100A80006C03C2F200034FF000021A604FF0804383
:100A90004FF000025A624FF48063C4F200031B88D7
:100AA0009BB203F01003002B0CD040F24C03C2F2B7
:100AB00000031B68A3F1040240F24C03C2F20003DE
:100AC0001A600BE040F24C03C2F200031B6803F112
:100AD000040240F24C03C2F200031A60BD4680BC1F
:100AE000704700BF80B400AF4FF080434FF6FE72F6
:100AF0001A8240F26C03C2F200031B6803F51C5219
:100B000002F1100240F26C03C2F200031A60BD460B
:100B100080BC704780B400AF4FF40063C4F20003A0
:100B20004FF6FE721A8240F26803C2F200031A689E
:100B300041F6B073C2F200031A6440F26803C2F2D5
:100B400000034FF000021A60BD4680BC704700BF32
:100B500080B58AB002AFF860B9603B601346FB8095
:100B6000FB68002B04D14FF0500080F31188FEE7A2
:100B7000BB6A042B04D94FF0500080F31188FEE7C4
:100B8000FB881846396B00F0D1FCB861BB69002BBB
:100B900000F0B080BB691A6BFB8803F1FF334FEAAA
:100BA0008303D3187B617B6923F007037B617B6937
:100BB00003F00703002B04D04FF0500080F311889E
:100BC000FEE7FB880093B869B968BA6A7B6B00F0EE
:100BD000D1FB7869F9683A6801F04EF903461A4684
:100BE000BB691A60FB6A002B02D0FB6ABA691A6003
:100BF00001F0D6F940F24813C2F200031B6803F17A
:100C0000010240F24813C2F200031A6040F270037E
:100C1000C2F200031B68002B0FD140F27003C2F236
:100C20000003BA691A6040F24813C2F200031B685D
:100C3000012B18D100F0DCFB15E040F25813C2F292
:100C400000031B68002B0ED140F27003C2F20003B8
:100C50001B68DA6ABB6A9A4205D840F27003C2F296
:100C60000003BA691A60BB69DA6A40F25013C2F233
:100C700000031B689A4206D9BB69DA6A40F2501336
:100C8000C2F200031A6040F26C13C2F200031B6848
:100C900003F1010240F26C13C2F200031A60BB6957
:100CA000DA6A40F25413C2F200031B689A4206D972
:100CB000BB69DA6A40F25413C2F200031A60BB69DE
:100CC000DA6A13464FEA83039B184FEA83031A46F6
:100CD00040F27403C2F20003D218BB6903F10403AB
:100CE0001046194600F092FD4FF00103FB6101F040
:100CF0006DF902E04FF0FF33FB61FB69012B11D16D
:100D000040F25813C2F200031B68002B0AD040F2D5
:100D10007003C2F200031B68DA6ABB6A9A4201D20E
:100D200001F032F9FB69184607F12007BD4680BD86
:100D300080B586B004AF42F2B073C0F600034FF046
:100D4000000200924FF0000201924FF00002029266
:100D50004FF00002039241F25130C0F600001946F4
:100D60004FF046024FF00003FFF7F2FE78607B6819
:100D7000012B13D14FF0500080F3118840F258132B
:100D8000C2F200034FF001021A6040F24C13C2F2AB
:100D900000034FF000021A6001F0BEF87B68002BE0
:100DA00004D14FF0500080F31188FEE707F10807E7
:100DB000BD4680BD80B400AF40F25C13C2F20003B8
:100DC0001B6803F1010240F25C13C2F200031A60D7
:100DD000BD4680BC704700BF90B583B000AF4FF0F8
:100DE00000037B6040F25C13C2F200031B68002B1F
:100DF00004D14FF0500080F31188FEE701F0D0F8E5
:100E000040F25C13C2F200031B6803F1FF3240F2B0
:100E10005C13C2F200031A6040F25C13C2F20003DA
:100E20001B68002B40F0868040F24813C2F200039A
:100E30001B68002B7ED04FF000033B603DE040F28A
:100E40000813C2F20003DB68DB681C4604F11803D8
:100E5000184600F005FD04F10403184600F000FDFB
:100E6000E26A40F25413C2F200031B689A4205D9A9
:100E7000E26A40F25413C2F200031A60E26A1346B7
:100E80004FEA83039B184FEA83031A4640F2740328
:100E9000C2F20003D21804F104031046194600F010
:100EA000B5FCE26A40F27003C2F200031B68DB6A21
:100EB0009A4202D34FF001033B6040F20813C2F2A2
:100EC00000031B68002BBAD140F26013C2F200038A
:100ED0001B68002B18D00DE000F034F840F26013CE
:100EE000C2F200031B6803F1FF3240F26013C2F24A
:100EF00000031A6040F26013C2F200031B68002B6B
:100F0000EAD14FF001033B603B68012B06D040F271
:100F10006413C2F200031B68012B0BD14FF00103D5
:100F20007B6040F26413C2F200034FF000021A60CB
:100F300001F02AF801F04AF87B68184607F10C071F
:100F4000BD4690BD80B584B000AF40F25C13C2F2E4
:100F500000031B68002B40F0CD8040F24C13C2F21E
:100F600000031B6803F1010240F24C13C2F20003BC
:100F70001A6040F24C13C2F200031B68002B4DD1E3
:100F800040F20013C2F200031B681B68002B04D060
:100F90004FF0500080F31188FEE740F20013C2F2D8
:100FA00000031B68FB6040F20413C2F200031A68DE
:100FB00040F20013C2F200031A6040F20413C2F2BE
:100FC0000003FA681A6040F26813C2F200031B685B
:100FD00003F1010240F26813C2F200031A6040F20A
:100FE0000013C2F200031B681B68002B07D140F2FC
:100FF0005403C2F200034FF0FF321A600EE040F2D9
:101000000013C2F200031B68DB68DB68BB60BB68CF
:101010005A6840F25403C2F200031A6040F24C13C3
:10102000C2F200031A6840F25403C2F200031B68C4
:101030009A426BD340F20013C2F200031B681B6894
:10104000002B07D140F25403C2F200034FF0FF32ED
:101050001A605BE040F20013C2F200031B68DB6819
:10106000DB68BB60BB685B687B6040F24C13C2F21C
:1010700000031A687B689A4206D240F25403C2F217
:1010800000037A681A6041E0BB6803F10403184664
:1010900000F0E6FBBB689B6A002B05D0BB6803F140
:1010A0001803184600F0DCFBBB68DA6A40F2541300
:1010B000C2F200031B689A4206D9BB68DA6A40F2A2
:1010C0005413C2F200031A60BB68DA6A13464FEA8F
:1010D00083039B184FEA83031A4640F27403C2F25B
:1010E0000003D218BB6803F104031046194600F050
:1010F0008DFB9FE740F26013C2F200031B6803F10F
:10110000010240F26013C2F200031A6007F11007F7
:10111000BD4680BD80B582B000AF40F25C13C2F224
:1011200000031B68002B07D040F26413C2F20003D7
:101130004FF001021A609CE040F27003C2F200031B
:101140001B681A6840F27003C2F200031B681B6B35
:101150009A420FD840F27003C2F200031A6840F2BC
:101160007003C2F200031B6803F1340310461946F2
:10117000FFF7D6FB40F27003C2F200031B681B6B43
:10118000184642F2B871C0F600014FF0140201F0A7
:10119000A3F90346002B29D040F27003C2F20003EA
:1011A0001A6840F27003C2F200031B6803F13403B3
:1011B00010461946FFF7B4FB19E040F25413C2F28F
:1011C00000031B68002B04D14FF0500080F31188FE
:1011D000FEE740F25413C2F200031B6803F1FF3232
:1011E00040F25413C2F200031A6000E000BF40F264
:1011F0005413C2F200031A6813464FEA83039B1884
:101200004FEA83031A4640F27403C2F20003D31874
:101210001B68002BD1D040F25413C2F200031A68AD
:1012200013464FEA83039B184FEA83031A4640F2A2
:101230007403C2F20003D3187B607B685B685B6851
:101240001A467B685A607B685A687B6803F108031A
:101250009A4205D17B685B685B681A467B685A6076
:101260007B685B68DB681A4640F27003C2F20003D9
:101270001A6007F10807BD4680BD00BF80B584B085
:1012800000AF78607B68DB68DB68BB60BB68002B05
:1012900004D14FF0500080F31188FEE7BB6803F1E2
:1012A0001803184600F0DCFA40F25C13C2F20003A7
:1012B0001B68002B2BD1BB6803F10403184600F018
:1012C000CFFABB68DA6A40F25413C2F200031B681B
:1012D0009A4206D9BB68DA6A40F25413C2F200039C
:1012E0001A60BB68DA6A13464FEA83039B184FEA19
:1012F00083031A4640F27403C2F20003D218BB689B
:1013000003F104031046194600F080FA09E0BB68B7
:1013100003F1180340F20810C2F20000194600F071
:1013200075FABB68DA6A40F27003C2F200031B6808
:10133000DB6A9A4203D34FF00103FB6002E04FF0F7
:101340000003FB60FB68184607F11007BD4680BD2F
:1013500080B582B000AF786000F09CF840F2740372
:10136000C2F200031B68012B01D900F00DFEFFF74C
:10137000DDFAF1E780B584B000AFF860B9607A605B
:101380003B60FB6803F134031A46BB6810461946FC
:101390004FF00A0201F0CEF9FB684FF0000283F82B
:1013A0003D207B68042B02D94FF004037B60FB686F
:1013B0007A68DA62FB687A681A64FB6803F10403EE
:1013C000184600F015FAFB6803F11803184600F000
:1013D0000FFAFB68FA681A617B68C3F10502FB68C3
:1013E0009A61FB68FA685A6207F11007BD4680BD32
:1013F00080B582B000AF4FF000037B6013E07A68E5
:1014000013464FEA83039B184FEA83031A4640F2C0
:101410007403C2F20003D318184600F0C5F97B68C4
:1014200003F101037B607B68042BE8D940F2D8000C
:10143000C2F2000000F0B8F940F2EC00C2F2000085
:1014400000F0B2F940F20810C2F2000000F0ACF96E
:1014500040F21C10C2F2000000F0A6F940F2341075
:10146000C2F2000000F0A0F940F20013C2F2000343
:1014700040F2D802C2F200021A6040F20413C2F233
:10148000000340F2EC02C2F200021A6007F1080702
:10149000BD4680BD80B582B000AF40F23013C2F2CD
:1014A00000031B68002B3CD0FFF784FC40F21C13A8
:1014B000C2F200031B68002B14BF002301237B60D2
:1014C000FFF78AFC7B68002B2BD100F069FD40F20E
:1014D0001C13C2F20003DB68DB683B603B6803F16E
:1014E0000403184600F0BCF940F24813C2F20003AE
:1014F0001B6803F1FF3240F24813C2F200031A6086
:1015000040F23013C2F200031B6803F1FF3240F2D5
:101510003013C2F200031A6000F058FD386800F082
:101520003FF807F10807BD4680BD00BF80B584B015
:1015300000AF03463960FB804FF0440000F038FFF5
:101540000346FB60FB68002B23D03B68002B07D1D0
:10155000FB884FEA8303184600F02AFF034600E0A9
:101560003B68FA681363FB681B6B002B06D1F868B5
:1015700000F070FF4FF00003FB600AE0FB681A6B9D
:10158000FB884FEA830310464FF0A5011A4601F08D
:1015900077F8FB68184607F11007BD4680BD00BF0D
:1015A00080B582B000AF78607B681B6B184600F096
:1015B00051FF786800F04EFF07F10807BD4680BD77
:1015C00080B584B000AF78607B68FB607B68002BDF
:1015D0003AD0FB68DA6AFB681B6C9A4234D0FB682D
:1015E00003F10403184600F03BF9FB681A6CFB6832
:1015F000DA62FB68DB6AC3F10502FB689A61FB688B
:10160000DA6A40F25413C2F200031B689A4206D908
:10161000FB68DA6A40F25413C2F200031A60FB68F6
:10162000DA6A13464FEA83039B184FEA83031A468C
:1016300040F27403C2F20003D218FB6803F1040302
:101640001046194600F0E2F807F11007BD4680BDCC
:1016500080B487B000AF786039604FF000037B61E1
:101660004FF000033B614FF00003FB604FF00003BD
:101670007B618FE07B694FF0010202FA03F33B616B
:101680003B681A683B6902EA0303FB60FA683B693E
:101690009A427BD17B681B681A467B694FEA4303F9
:1016A0004FF0030101FA03F36FEA03031A407B686A
:1016B0001A607B681B681A463B681B7919467B6970
:1016C0004FEA430301FA03F31A437B681A603B684D
:1016D0001B79012B03D03B681B79022B38D17B6827
:1016E0009B681A467B694FEA43034FF0030101FAF6
:1016F00003F36FEA03031A407B689A607B689B6878
:101700001A463B685B7919467B694FEA430301FA45
:1017100003F31A437B689A607B685B681A467B69AF
:101720009BB24FF0010101FA03F36FEA03031A4081
:101730007B685A607B685B681A463B689B791946F0
:101740007B699BB201FA03F39BB21A437B685A6030
:101750007B68DB681A467B699BB24FEA43034FF014
:10176000030101FA03F36FEA03031A407B68DA60AE
:101770007B68DB681A463B68DB7919467B694FEA70
:10178000430301FA03F31A437B68DA607B6903F1D0
:1017900001037B617B690F2B7FF66CAF07F11C07A0
:1017A000BD4680BC704700BF80B483B000AF786096
:1017B0007B6803F108031A467B685A607B684FF028
:1017C000FF329A607B6803F108031A467B68DA608F
:1017D0007B6803F108031A467B681A617B684FF047
:1017E00000021A6007F10C07BD4680BC704700BFBD
:1017F00080B483B000AF78607B684FF000021A615C
:1018000007F10C07BD4680BC704700BF80B485B0AF
:1018100000AF786039607B685B68FB60FB685B6881
:101820001A463B685A607B685A683B689A60FB6856
:101830005B683A689A603A68FB685A603A687B6805
:101840005A603B687A681A617B681B6803F1010281
:101850007B681A6007F11407BD4680BC704700BF63
:1018600080B485B000AF78607B685B687A68926806
:101870009A607B689B687A6852685A607B681B69CB
:10188000FB60FB685A687B689A4203D17B689A6860
:10189000FB685A607B684FF000021A61FB681B68A6
:1018A00003F1FF32FB681A6007F11407BD4680BCE4
:1018B000704700BF80B500AF4FF46053C4F202031D
:1018C0004FF46052C4F20202126842F001021A6040
:1018D0004FF46053C4F202034FF000029A604FF4D9
:1018E0006053C4F202034FF46052C4F20202126861
:1018F00022F0847222F480321A604FF46053C4F2F2
:10190000020343F21002C2F200425A604FF46053E5
:10191000C4F202034FF46052C4F20202126822F4CD
:1019200080221A604FF46053C4F202034FF00002A9
:10193000DA6000F009F84FF46D43CEF200034FF087
:1019400000629A6080BD00BF80B483B000AF4FF0EA
:1019500000037B604FF000033B604FF46053C4F220
:1019600002034FF46052C4F20202126842F4803261
:101970001A604FF46053C4F202031B6803F400338F
:101980003B607B6803F101037B603B68002B03D164
:101990007B68B3F5A06FECD14FF46053C4F202033F
:1019A0001B6803F40033002B03D04FF001033B60AE
:1019B00002E04FF000033B603B68012B69D14FF41C
:1019C0006053C4F202034FF46052C4F20202926800
:1019D0009A604FF46053C4F202034FF46052C4F2B1
:1019E0000202926842F400429A604FF46053C4F2DB
:1019F00002034FF46052C4F20202926842F4A05211
:101A00009A604FF46053C4F2020343F20402C0F63A
:101A100043025A604FF46053C4F202034FF4605221
:101A2000C4F20202126842F080721A6000BF4FF4E2
:101A30006053C4F202031B6803F00073002BF6D05E
:101A40004FF47053C4F2020340F201721A604FF473
:101A50006053C4F202034FF46052C4F2020292686F
:101A600022F003029A604FF46053C4F202034FF471
:101A70006052C4F20202926842F002029A6000BF11
:101A80004FF46053C4F202039B6803F00C03082B6D
:101A9000F6D107F10C07BD4680BC704780B483B017
:101AA00000AF0346FB714FF46143CEF2000397F998
:101AB00007204FEA5212F97901F01F014FF001009F
:101AC00000FA01F143F8221007F10C07BD4680BC73
:101AD000704700BF80B586B000AF4FF004004FF0F4
:101AE0000101FEF72FFF4FF480404FF00101FEF798
:101AF00057FF4FF00F033B614FF000033B754FF072
:101B00000003FB7507F110034FF40060C4F20200FC
:101B10001946FFF79DFD4FF002004FF00001FEF760
:101B200033FB4FF00103BB604FF000033B734FF0FA
:101B300010037B734FF00103BB7307F108031846D2
:101B400000F0C2FA4FF002004FF00101FEF71CFB5B
:101B50004FF00203BB604FF000033B734FF01003E4
:101B60007B734FF00103BB7307F10803184600F0C5
:101B7000ABFA4FF002004FF00201FEF705FB4FF009
:101B80000403BB604FF000033B734FF010037B7303
:101B90004FF00103BB7307F10803184600F094FAF5
:101BA0004FF002004FF00301FEF7EEFA4FF008038A
:101BB000BB604FF000033B734FF010037B734FF09B
:101BC0000103BB7307F10803184600F07DFA4FF4D8
:101BD000407000F065FB4FF006033B714FF00E03C1
:101BE0007B714FF00103BB714FF00103FB7107F1F3
:101BF0000403184600F068FB4FF007033B714FF0F9
:101C00000E037B714FF00103BB714FF00103FB71B9
:101C100007F10403184600F057FB4FF008033B712F
:101C20004FF00E037B714FF00103BB714FF00103C6
:101C3000FB7107F10403184600F046FB4FF009035F
:101C40003B714FF00E037B714FF00103BB714FF0FE
:101C50000103FB7107F10403184600F035FB4FF058
:101C60000600FFF71BFF4FF00700FFF717FF4FF0CD
:101C70000800FFF713FF4FF00900FFF70FFF07F110
:101C80001807BD4680BD00BF80B400AF4FF470534D
:101C9000C4F201034FF001025A61BD4680BC704797
:101CA00080B400AF4FF47053C4F201034FF002024E
:101CB0005A61BD4680BC704780B400AF4FF470538A
:101CC000C4F201034FF004025A61BD4680BC704764
:101CD00080B400AF4FF47053C4F201034FF0080218
:101CE0005A61BD4680BC704780B586B000AFF860D1
:101CF000B9607A603B60FB68002B04D14FF0500064
:101D000080F31188FEE7BB68002B03D1FB681B6CD6
:101D1000002B02D14FF0010301E04FF00003002B34
:101D200004D14FF0500080F31188FEE74FF000031C
:101D30003B614FF0500080F31188FB689B6B1A46A3
:101D4000FB68DB6B9A4228D2F868B9683A6800F001
:101D500031F8FB689B6CB3F1FF3F14D1FB685B6A01
:101D6000002B16D0FB6803F124031846FFF786FA10
:101D70000346002B0DD07B68002B0AD07B684FF008
:101D800001021A6005E0FB689B6C03F10102FB682D
:101D90009A644FF001037B6102E04FF000037B6126
:101DA0004FF0000080F311887B69184607F118078F
:101DB000BD4680BD80B584B000AFF860B9607A6080
:101DC000FB681B6C002B0DD1FB681B68002B48D1F6
:101DD000FB685B681846FFF7F3FBFB684FF00002F7
:101DE0005A603EE07B68002B1AD1FB689A68FB685A
:101DF0001B6C1046B9681A4600F09AFBFB689A689B
:101E0000FB681B6CD218FB689A60FB689A68FB68D9
:101E10005B689A4225D3FB681A68FB689A6020E0E9
:101E2000FB68DA68FB681B6C1046B9681A4600F05C
:101E30007FFBFB68DA68FB681B6CC3F10003D218F8
:101E4000FB68DA60FB68DA68FB681B689A4208D2B4
:101E5000FB685A68FB681B6CC3F10003D218FB686F
:101E6000DA60FB689B6B03F10102FB689A6307F180
:101E70001007BD4680BD00BF80B485B000AFF860DC
:101E8000B9607A60FB68A3F10403FB60FB684FF064
:101E900080721A60FB68A3F10403FB60BA68FB68F8
:101EA0001A60FB68A3F10403FB60FB684FF00002BB
:101EB0001A60FB68A3F11403FB607A68FB681A6080
:101EC000FB68A3F10403FB60FB686FF002021A6079
:101ED000FB68A3F12003FB60FB68184607F11407B9
:101EE000BD4680BC704700BF054B19680868B0E864
:101EF000F04F80F309884FF0000080F3118870479D
:101F00007000002003480068006880F3088862B60B
:101F100000DF00BF08ED00E080B500AF4EF62053B3
:101F2000CEF200034EF62052CEF20002126842F4C6
:101F300070021A604EF62053CEF200034EF6205285
:101F4000CEF20002126842F070421A6000F09EF871
:101F500040F25803C2F200034FF000021A6000F092
:101F6000A9F84EF63473CEF200034EF63472CEF278
:101F70000002126842F040421A60FFF7C3FF4FF0C0
:101F80000003184680BD00BF80B400AF4EF6045376
:101F9000CEF200034FF080521A60BD4680BC7047FD
:101FA00080B400AF4FF0500080F3118840F2580326
:101FB000C2F200031B6803F1010240F25803C2F2AF
:101FC00000031A60BD4680BC704700BF80B400AFFC
:101FD00040F25803C2F200031B6803F1FF3240F2E3
:101FE0005803C2F200031A6040F25803C2F2000321
:101FF0001B68002B03D14FF0000080F31188BD4611
:1020000080BC7047EFF30980114B1A681EF0100F67
:1020100008BF20ED108A20E9F04F10602DE908403C
:102020004FF0500080F31188FFF774F84FF0000074
:1020300080F31188BDE8084019680868B0E8F04FDF
:102040001EF0100F08BFB0EC108A80F309887047AB
:102050007000002080B582B000AF4EF60453CEF27F
:1020600000034FF080521A604FF000037B604FF086
:10207000500080F31188FEF765FF4FF0000080F3F9
:10208000118807F10807BD4680BD00BF80B400AFCE
:102090004EF21403CEF200034BF67F321A604EF27A
:1020A0001003CEF200034FF007021A60BD4680BC59
:1020B000704700BFDFF80C00016841F47001016057
:1020C0007047000088ED00E080B485B000AF786014
:1020D0004FF00003FB604FF47053C4F20103FB6048
:1020E0007B689B79002B00F087804FF47053C4F21B
:1020F00001034FF47052C4F20102126811467A686B
:1021000012686FEA020201EA02021A604FF4705389
:10211000C4F201034FF47052C4F201025268114636
:102120007A6812686FEA020201EA02025A607B686A
:102130001B79FA68D318FB60FB68FA6811687A6843
:10214000126841EA02021A604FF47053C4F20103AC
:102150004FF47052C4F20102926811467A68126814
:102160006FEA020201EA02029A604FF47053C4F26D
:1021700001034FF47052C4F20102D26811467A682A
:1021800012686FEA020201EA0202DA607B685B7998
:10219000102B1ED14FF47053C4F201034FF4705250
:1021A000C4F20102926811467A68126841EA02029A
:1021B0009A604FF47053C4F201034FF47052C4F2AA
:1021C0000102D26811467A68126841EA0202DA60B6
:1021D00021E04FF47053C4F20103FB607B685B792C
:1021E000FA68D318FB60FB68FA6811687A681268AD
:1021F00041EA02021A600EE07B681B79FA68D31884
:10220000FB60FB68FA6811687A6812686FEA02027C
:1022100001EA02021A6007F11407BD4680BC70474C
:1022200080B485B000AF78604FF00003FB734FF0CF
:102230000003BB604FF47053C4F201031B681A46DD
:102240007B6802EA0303BB604FF47053C4F20103DE
:102250005B691A467B6802EA0303002B06D0BB6861
:10226000002B03D04FF00103FB7302E04FF000039B
:10227000FB73FB7B184607F11407BD4680BC704713
:1022800080B483B000AF78604FF47053C4F20103A0
:102290007A685A6107F10C07BD4680BC704700BFE1
:1022A00080B483B000AF78604FF46D43CEF200038A
:1022B0007A6842F0BE6242F42022DA6007F10C072D
:1022C000BD4680BC704700BF80B485B000AF786069
:1022D0004FF00003FB734FF00003BB734FF00F038D
:1022E0007B737B68DB78002B47D04FF46D43CEF2D5
:1022F0000003DB686FEA030303F4E0634FEA132390
:10230000FB73FB7BC3F10403BB737A7BFB7B42FA59
:1023100003F37B737B685B781A46BB7B02FA03F39B
:10232000FB737B689A787B7B02EA0303DAB2FB7B60
:1023300042EA0303FB73FB7B4FEA0313FB734FF487
:102340006143CEF200037A6812789B18FA7B83F817
:1023500000234FF46143CEF200037A6812784FEA0B
:102360005212D2B27968097801F01F014FF00100D2
:1023700000FA01F143F8221014E04FF46143CEF269
:1023800000037A6812784FEA5212D2B2796809785B
:1023900001F01F014FF0010000FA01F102F12002EB
:1023A00043F8221007F11407BD4680BC704700BFF8
:1023B00080B584B000AF78604FF00003FB607B68AD
:1023C00003F00703002B05D07B6823F0070303F11C
:1023D00008037B60FEF7EEFC41F67053C2F2000387
:1023E0001A687B68D21841F6FF339A4224D841F626
:1023F0007053C2F200031A687B68D21841F670531A
:10240000C2F200031B689A4216D941F67053C2F219
:1024100000031A6840F27013C2F20003D318FB6085
:1024200041F67053C2F200031A687B68D21841F675
:102430007053C2F200031A60FEF7CEFCFB68002B5B
:1024400001D1FEF769FAFB68184607F11007BD468F
:1024500080BD00BF80B483B000AF786007F10C0787
:10246000BD4680BC704700BF80B400AF41F67053DA
:10247000C2F200031B68C3F5E0531846BD4680BC9A
:10248000704700BF80B400AFBFF34F8F4FF46D4271
:10249000CEF200024FF46D43CEF20003DB6803F48A
:1024A000E0614FF00403C0F2FA5341EA0303D36042
:1024B000BFF34F8FFEE700BF80B500AF4FF4803011
:1024C000FFF7AEFE0346002B05D0FFF7DBFF4FF40E
:1024D0008030FFF7D5FE80BD032A70B404460D4658
:1024E00012D941EA000313F0030F0FD10B46044643
:1024F00051F8045B50F8046BAE4204D1043A044630
:10250000032A0B46F2D81D46104672B121782B786B
:10251000994209D1501E2A4638B114F8011F0138DA
:1025200012F8013F9942F7D0C81A70BC704700BF3B
:10253000032A2DE9F00109D82AB10023CC5CC45448
:1025400001339342FAD1BDE8F00170470B4682187F
:10255000014603E02478013301F8014B11F0030F29
:102560001C46F7D113F003055DD06E42C5F1040C93
:10257000ED009B594FEACC0C08E00434A7593B46C8
:1025800007FA0CF748EA070741F8047B571A23FAC1
:1025900005F8032FF1DC03E014F8013B01F8013BDF
:1025A0008A42F9D8CFE753F8404C41F8404C53F8F1
:1025B0003C4C41F83C4C53F8384C41F8384C53F8FB
:1025C000344C41F8344C53F8304C41F8304C53F80B
:1025D0002C4C41F82C4C53F8284C41F8284C53F81B
:1025E000244C41F8244C53F8204C41F8204C53F82B
:1025F0001C4C41F81C4C53F8184C41F8184C53F83B
:10260000144C41F8144C53F8104C41F8104C53F84A
:102610000C4C41F80C4C53F8084C41F8084C53F85A
:10262000044C41F8044C561A1D460C4640334031C8
:102630003F2EB8DC2B460FE053F8101C44F8101C5A
:1026400053F80C1C44F80C1C53F8081C44F8081CE4
:1026500053F8041C44F8041C161B1D4610330F2E9F
:10266000214604F11004E7DC2B4602E0246841F81F
:10267000044B551A1C46032D03F10403F6DC8FE7C7
:10268000032AC9B270B408D82AB10346121803F855
:10269000011B9342FBD170BC70478218044601E0D5
:1026A00004F8011B14F0030FFAD14FF0013303FBC0
:1026B00001F31FE044F8403C44F83C3C44F8383C0B
:1026C00044F8343C44F8303C44F82C3C44F8283C72
:1026D00044F8243C44F8203C44F81C3C44F8183CA2
:1026E00044F8143C44F8103C44F80C3C44F8083CD2
:1026F00044F8043C161B254640343F2EDADC2C46B9
:1027000007E044F8103C44F80C3C44F8083C44F81A
:10271000043C161B254610340F2EF2DC01E045F870
:10272000043B541B032CFADC01E005F8011B954225
:10273000FBD3B0E741EA000313F0030F034670B484
:1027400014BF00250125032A94BF002505F00105CB
:102750000C460646CDB9B2B10D783446531E04F886
:10276000015B55B1B21C73B111F8015F1446013B16
:1027700002F8015C0132002DF5D123B10022013BAA
:1027800004F8012BFBD170BC7047214654F8045B60
:10279000A5F1013626EA050616F0803F05D1043A78
:1027A00043F8045B032A2146EFD81E46D3E700BF57
:1027B00049444C4500000000A5A5A5A5A5A5A5A5D3
:0C27C000A5A5A5A5A5A5A5A5A5A5A5A551
:1027CC003C3C524F544F523E3E0000000000000073
:1027DC00000000003C2D2D2047454F5350484552DA
:1027EC00415F32303134202D2D3E000000000000BE
:1027FC00000000000000000000000000303030300D
:10280C00310000000514C0FF0100000000800080B2
:0C281C0001000000FFFFFFFFAAAAAAAA0B
:0400000508000000EF
:00000001FF
