:020000040800F2
:10000000DC270020F11600086917000869170008AE
:100010006917000869170008691700080000000048
:10002000000000000000000000000000593A000835
:100030006917000800000000753B0008C53B000878
:1000400069170008AD420008691700086917000821
:100050006917000869170008691700086917000880
:100060006917000869170008691700086917000870
:100070006917000869170008691700086917000860
:100080006917000869170008691700086917000850
:100090006917000869170008691700086917000840
:1000A000691700081D1B0008691700086917000878
:1000B00069170008A11A00086917000869170008E5
:1000C0006917000869170008691700086917000810
:1000D00069170008691700086917000899050008E2
:1000E00069170008691700086917000869170008F0
:1000F00069170008691700086917000869170008E0
:1001000069170008691700086917000869170008CF
:1001100069170008691700086917000869170008BF
:1001200069170008691700086917000869170008AF
:10013000691700086917000869170008691700089F
:10014000691700086917000869170008691700088F
:10015000691700086917000869170008691700087F
:10016000691700086917000869170008691700086F
:10017000691700086917000869170008691700085F
:10018000691700086917000880B58AB000AF786069
:1001900039604FF000037B624FF000033B624FF089
:1001A0000003FB614FF00003BB617B681B8A9BB2BD
:1001B0007B627B6A23F440537B623B68DB887A6A0C
:1001C00042EA03037B627B6A9AB27B681A827B688D
:1001D0009B899BB27B627B6A23F4B05323F00C03B0
:1001E0007B623B689A883B681B8942EA03039AB2A8
:1001F0003B685B8942EA03039BB27A6A42EA0303E3
:100200007B627B6A9AB27B689A817B689B8A9BB28D
:100210007B627B6A23F440737B623B689B897A6ACA
:1002200042EA03037B627B6A9AB27B689A8207F197
:100230000803184601F0C0FA7A684FF48053C4F2FC
:1002400001039A4206D07A684FF4A053C4F2010326
:100250009A4202D17B693B6201E03B693B627B6869
:100260009B899BB29BB21BB2002B0FDA3A6A1346F2
:100270004FEA83039B184FEA83029A183B681B6876
:100280004FEA4303B2FBF3F3FB610EE03A6A134615
:100290004FEA83039B184FEA83029A183B681B6856
:1002A0004FEA8303B2FBF3F3FB61FA6948F21F5391
:1002B000C5F2EB13A3FB02134FEA53134FEA0313E8
:1002C0007B627B6A4FEA13134FF0640202FB03F375
:1002D000FA69D31ABB617B689B899BB29BB21BB244
:1002E000002B13DABB694FEAC30303F1320248F271
:1002F0001F53C5F2EB13A3FB02134FEA531303F092
:1003000007037A6A42EA03037B6212E0BB694FEAA1
:10031000031303F1320248F21F53C5F2EB13A3FBA0
:1003200002134FEA531303F00F037A6A42EA0303FE
:100330007B627B6A9AB27B681A8107F12807BD4607
:1003400080BD00BF80B483B000AF78600B46FB7007
:10035000FB78002B08D07B689B899BB243F4005349
:100360009AB27B689A8107E07B689B899BB223F4F1
:1003700000539AB27B689A8107F10C07BD4680BC96
:10038000704700BF80B487B000AF786013460A465C
:100390007A807B704FF000033B614FF00003FB60FD
:1003A0004FF00003BB604FF000037B617B687B6113
:1003B0007B88DBB24FEA5313DBB23B617B8803F0EF
:1003C0001F03FB60FB684FF0010202FA03F3BB60FE
:1003D0003B69012B04D17B6903F10C037B610BE0CA
:1003E0003B69022B04D17B6903F110037B6103E0BD
:1003F0007B6903F114037B617B78002B07D07B6959
:100400007A691168BA6841EA02021A6008E07B69F9
:100410007A691168BA686FEA020201EA02021A6098
:1004200007F11C07BD4680BC704700BF80B483B095
:1004300000AF78600B467B807B886FEA03039AB23B
:100440007B681A8007F10C07BD4680BC704700BF6F
:1004500080B487B000AF78600B467B804FF000031C
:10046000FB604FF000037B614FF00003BB604FF077
:100470000003FB747B88DBB24FEA5313DBB2BB6033
:100480007B8803F01F037B617B694FF0010202FA56
:1004900003F37B61BB68012B07D17B689B899BB20F
:1004A0007A6902EA03037B6111E0BB68022B07D182
:1004B0007B681B8A9BB27A6902EA03037B6106E0D0
:1004C0007B689B8A9BB27A6902EA03037B617B8823
:1004D0004FEA13239BB2FB60FB684FF0010202FA64
:1004E00003F3FB607B681B889BB2FA6802EA030394
:1004F000FB607B69002B06D0FB68002B03D04FF01C
:100500000103FB7402E04FF00003FB74FB7C184610
:1005100007F11C07BD4680BC704700BF80B485B0A2
:1005200000AF78600B467B804FF00003FB814FF0FB
:100530000003BB817B884FEA1323FB81FB894FF0CB
:10054000010202FA03F3BB81BB896FEA03039AB28B
:100550007B681A8007F11407BD4680BC704700BF56
:1005600080B483B000AF0346FB714FF46143CEF219
:10057000000397F907204FEA5212F97901F01F01A1
:100580004FF0010000FA01F143F8221007F10C07C7
:10059000BD4680BC704700BF80B500AF40F2740319
:1005A000C2F200034FF000021A604FF49040C4F210
:1005B000000040F22551FFF74BFF0346002B00F0EF
:1005C00061814FF49040C4F2000040F22551FFF7E2
:1005D000A5FF4FF49043C4F200039B889BB2DAB2AC
:1005E00040F24703C2F200031A7040F24803C2F21D
:1005F00000031B78002B00F04481012B40F0428166
:1006000040F24703C2F200031B78292B29D0D72BD5
:1006100002D0002B75D0A1E041F68163C2F2000345
:100620001B781A4640F24703C2F20003197841F6DC
:100630008053C2F20003995441F68163C2F2000371
:100640001B7803F10103DAB241F68163C2F20003C1
:100650001A7041F69173C2F200034FF001021A7052
:10066000A7E041F69173C2F200031B78012B23D15E
:1006700041F68053C2F200034FF000021A7041F6B7
:100680008053C2F200034FF0D7025A7041F68053F4
:10069000C2F200034FF029029A7041F69273C2F23F
:1006A00000034FF001021A7041F68163C2F20003A9
:1006B0004FF003021A701CE041F68163C2F200039E
:1006C0001B781A4640F24703C2F20003197841F63C
:1006D0008053C2F20003995441F68163C2F20003D1
:1006E0001B7803F10103DAB241F68163C2F2000321
:1006F0001A7041F69173C2F200034FF000021A70B3
:1007000057E041F69173C2F200031B78012B07D129
:1007100041F69173C2F200034FF000021A7048E0F4
:1007200041F68163C2F200031B781A4640F2470388
:10073000C2F20003197841F68053C2F200039954C3
:1007400041F68163C2F200031B7803F10103DAB2C0
:1007500041F68163C2F200031A702AE041F69273F7
:10076000C2F200031B78002B23D041F68163C2F252
:1007700000031B781A4640F24703C2F200031978BF
:1007800041F68053C2F20003995441F68163C2F2EC
:1007900000031B7803F10103DAB241F68163C2F270
:1007A00000031A7041F69173C2F200034FF0000289
:1007B0001A7041F68163C2F200031B78062B47D9F9
:1007C00041F68163C2F200031B781A4640F27003BF
:1007D000C2F200031B7803F106039A4252D14FF490
:1007E0009040C4F2000040F225514FF00002FFF7A4
:1007F000C9FD41F68C73C2F200031B6818464FF026
:10080000000140F27402C2F200024FF0000302F055
:100810009FFE40F27403C2F200031B68002B08D055
:1008200040F27403C2F200031B68002B01D003F0F6
:1008300063F941F69173C2F200034FF000021A709F
:1008400041F69273C2F200034FF000021A7019E0F1
:1008500041F68163C2F200031B78062B12D141F6E8
:100860008163C2F200031B7803F1FF3241F680532B
:10087000C2F200039A5C40F27003C2F200031A70E5
:1008800000E000BF4FF49040C4F2000040F2266147
:10089000FFF7DEFD0346002B00F0BC804FF49040D4
:1008A000C4F2000040F22661FFF738FE41F6806393
:1008B000C2F200031A7841F68963C2F200031B7882
:1008C0009A426CD241F68063C2F200031B78022B7D
:1008D0001DD84FF49043C4F2000341F68062C2F287
:1008E00000021278114641F68C62C2F20002525C9C
:1008F0009A8041F68063C2F200031B7803F1010382
:10090000DAB241F68063C2F200031A7082E041F667
:100910009173C2F200031B78002B31D141F6806342
:10092000C2F200031B781A4641F68C63C2F2000340
:100930009B5CD72B06D141F69173C2F200034FF0B6
:1009400001021A704FF49043C4F2000341F6806232
:10095000C2F200021278114641F68C62C2F2000225
:10096000525C9A8041F68063C2F200031B7803F167
:100970000103DAB241F68063C2F200031A7049E063
:100980004FF49043C4F200034FF000029A8041F606
:100990009173C2F200034FF000021A703AE041F680
:1009A0008063C2F200034FF000021A7041F68163C7
:1009B000C2F200034FF000021A7041F69173C2F2C6
:1009C00000034FF000021A704FF49040C4F2000090
:1009D00040F225514FF00102FFF7D4FC4FF4806341
:1009E000C4F202034FF48062C4F20202528B92B24C
:1009F00042F0020292B25A834FF48063C4F20203BF
:100A00004FF48062C4F20202528B92B242F00402AE
:100A100092B25A8340F27403C2F200031B68002BA7
:100A200001D003F069F880BD80B58EB004AF0346F5
:100A3000FB714FF480204FF0010100F0D5FF4FF023
:100A400002004FF0010100F0A1FF4FF440633B6250
:100A50004FF0020387F824304FF0020387F8253067
:100A60004FF0000387F826304FF0010387F8273056
:100A700007F120034FF48060C4F20200194602F02F
:100A800059F94FF48060C4F202004FF00A014FF0B0
:100A9000070202F0FBF94FF48060C4F202004FF04D
:100AA0000B014FF0070202F0F1F94FF461433B6193
:100AB0004FF00003BB824FF00003FB824FF00003B6
:100AC0003B834FF00003BB834FF00C037B8307F1A4
:100AD00010034FF49040C4F200001946FFF754FB96
:100AE0004FF006033B624FF0010387F824304FF0CC
:100AF000000387F826304FF0000387F827304FF0C7
:100B0000020387F8253007F120034FF48060C4F218
:100B10000200194602F00EF94FF49040C4F20000B2
:100B20004FF45871FFF782FC4FF49040C4F200007C
:100B300040F226614FF00102FFF724FC4FF4904091
:100B4000C4F2000040F225514FF00102FFF71AFCF9
:100B50004FF49040C4F200004FF00101FFF7F2FBA8
:100B60004FF4806003F026F94FF027033B734FF0FA
:100B70000E037B734FF00003BB734FF00103FB7355
:100B800007F10C03184603F029F94FF02700FFF78F
:100B9000E7FC4FF48063C4F202034FF48062C4F2B6
:100BA0000202528B92B242F0020292B25A834FF486
:100BB0008063C4F202034FF48062C4F20202528BDB
:100BC00092B242F0040292B25A8341F69073C2F29A
:100BD00000034FF000021A7041F68863C2F200036E
:100BE0004FF000021A7003F027F841F68163C2F259
:100BF00000034FF000021A7041F68063C2F2000356
:100C00004FF000021A7041F68963C2F200034FF000
:100C100000021A7041F69173C2F200034FF0000215
:100C20001A7041F69273C2F200034FF000021A707C
:100C3000FB79002B44D144F2A453C0F600034FF0DB
:100C4000010200924FF0000201924FF00002029266
:100C50004FF00002039241F29540C0F600001946A1
:100C60004FF480724FF0000301F01AF941F69473CB
:100C7000C2F200034FF000021A714FF001004FF072
:100C800000014FF0030202F06FFB024641F68C7345
:100C9000C2F200031A6041F68C73C2F200031B68B3
:100CA000002B0DD041F68C73C2F200031B6818466E
:100CB0004FF000014FF000024FF0000302F09CFBE8
:100CC00007F12807BD4680BD90B583B000AF4FF057
:100CD0000003FB7141F68C63C2F200034FF0000287
:100CE0001A7041F68C63C2F200034FF0D7025A70BB
:100CF00041F68C63C2F200034FF029029A7040F271
:100D00004403C2F200031A7841F68C63C2F2000376
:100D1000DA7041F68C63C2F200034FF002021A71DE
:100D200040F24603C2F200031A7841F68C63C2F225
:100D300000039A714FF00003FB711FE0FB79132B46
:100D40000ED8FB7903F10702F97940F20003C2F2F1
:100D50000003595C41F68C63C2F20003995409E028
:100D6000FB7903F1070241F68C63C2F200034FF0F6
:100D700000019954FB7903F10103FB71FB79132BFB
:100D8000DCD94FF00003FB7114E0FB79072B0DD881
:100D9000FB7903F11B02F97940F23C03C2F2000334
:100DA000595C41F68C63C2F200039954FB7903F15C
:100DB0000103FB71FB79042BE7D941F68C63C2F286
:100DC00000034FF0020283F820204FF00003FB7174
:100DD0003CE0FB794FEA430303F12100F97941F646
:100DE000A472C2F200020B464FEAC3035B1A4FEA39
:100DF0008303D3181B794FEA0313DCB2F97941F668
:100E0000A472C2F200020B464FEAC3035B1A4FEA18
:100E10008303D3185B79DBB2224642EA0303DBB2D9
:100E2000DAB241F68C63C2F200031A54FB7903F183
:100E300011034FEA430241F68C63C2F200034FF004
:100E400000019954FB7903F10103FB71FB79012B3C
:100E5000BFD94FF00003FB7111E0FB7903F12502CC
:100E6000F97940F21403C2F20003595C41F68C6335
:100E7000C2F200039954FB7903F10103FB7140F2C4
:100E80004503C2F200031B78FA799A42E5D340F297
:100E90004503C2F200031B7803F12003DAB241F6E6
:100EA0008C63C2F200035A7140F24503C2F20003A0
:100EB0001B7803F1250440F24503C2F200031B78BE
:100EC00003F12403DBB20C48194600F0CDFB0346C6
:100ED0001A4641F68C63C2F200031A5540F24503EC
:100EE000C2F200031B7803F12603DBB2184607F1B8
:100EF0000C07BD4690BD00BF8D1E002080B400AF22
:100F00004FF000031846BD4680BC704780B400AF68
:100F10004FF000031846BD4680BC704780B400AF58
:100F20004FF000031846BD4680BC704780B400AF48
:100F30004FF000031846BD4680BC704780B400AF38
:100F40004FF000031846BD4680BC704780B400AF28
:100F50004FF000031846BD4680BC704780B400AF18
:100F60004FF000031846BD4680BC704780B400AF08
:100F70004FF000031846BD4680BC704780B500AFF7
:100F800040F24603C2F200034FF040021A704FF0E5
:100F9000000000F063F90346184680BD90B583B0A9
:100FA00000AF4FF00003FB714FF00003BB7141F63F
:100FB0008C63C2F200034FF000021A7041F68C639A
:100FC000C2F200034FF0D7025A7041F68C63C2F2AE
:100FD00000034FF029029A7040F24403C2F200036A
:100FE0001A7841F68C63C2F20003DA7041F68C6322
:100FF000C2F200034FF015021A7140F24603C2F22A
:1010000000031A7841F68C63C2F200039A714FF024
:101010000003BB71F7E0FB7903F1070241F68C6333
:10102000C2F20003B9799954FB7903F10103FB7112
:10103000FB7903F10700B97941F6A472C2F200020C
:101040000B464FEAC3035B1A4FEA8303D3181B799D
:101050004FEA0313DCB2B97941F6A472C2F200027E
:101060000B464FEAC3035B1A4FEA8303D3185B793D
:10107000DBB2224642EA0303DBB2DAB241F68C630A
:10108000C2F200031A54FB7903F10103FB71B97931
:1010900041F6A472C2F200020B464FEAC3035B1A88
:1010A0004FEA8303D3181B79012B40F0A980B9794B
:1010B00041F6A472C2F200020B464FEAC3035B1A68
:1010C0004FEA8303D3185B79002B40F09480FB79BF
:1010D00003F10700B97941F6A472C2F200020B468F
:1010E0004FEAC3035B1A4FEA8303D31803F10803E3
:1010F0001B68DAB241F68C63C2F200031A54FB7922
:1011000003F10103FB71FB7903F10700B97941F6A3
:10111000A472C2F200020B464FEAC3035B1A4FEA05
:101120008303D31803F108031B6803F47F434FEADA
:101130001323DAB241F68C63C2F200031A54FB792E
:1011400003F10103FB71FB7903F10700B97941F663
:10115000A472C2F200020B464FEAC3035B1A4FEAC5
:101160008303D31803F108031B6803F47F034FEADA
:101170001343DAB241F68C63C2F200031A54FB79CE
:1011800003F10103FB71FB7903F10700B97941F623
:10119000A472C2F200020B464FEAC3035B1A4FEA85
:1011A0008303D31803F108031B684FEA1363DAB211
:1011B00041F68C63C2F200031A54FB7903F1010378
:1011C000FB71FB7903F10700B97941F6A472C2F211
:1011D00000020B464FEAC3035B1A4FEA8303D3189E
:1011E0009A7941F68C63C2F200031A54FB7903F139
:1011F0000103FB7100BFBB7903F10103BB7102E086
:101200004FF0000322E0BB79012B7FF604AFFB799E
:1012100003F10203DAB241F68C63C2F200035A71A1
:10122000FB7903F10704FB7903F10603DBB20A48FB
:10123000194600F019FA03461A4641F68C63C2F2C9
:1012400000031A55FB7903F10803DBB2184607F1D6
:101250000C07BD4690BD00BF8D1E002080B582B03A
:1012600000AF0346FB7141F68C63C2F200034FF0FE
:1012700000021A7041F68C63C2F200034FF0D702ED
:101280005A7041F68C63C2F200034FF029029A7043
:1012900040F24403C2F200031A7841F68C63C2F2B2
:1012A0000003DA7041F68053C2F200031A7941F666
:1012B0008C63C2F20003DA7141F68C63C2F2000360
:1012C0004FF0FF021A7140F24603C2F200031A788F
:1012D00041F68C63C2F200039A7141F68C63C2F24C
:1012E0000003FA791A7241F68C63C2F200034FF0E0
:1012F00004025A7141F68C60C2F200004FF00901FD
:1013000000F0B2F903461A4641F68C63C2F20003BC
:101310005A724FF00A03184607F10807BD4680BD10
:1013200080B500AF41F68053C2F200031B7903F190
:10133000FF33132B00F29A8001A252F823F000BF72
:10134000911300086D140008A51300086D1400081F
:10135000B91300086D140008CD1300086D140008BF
:10136000E1130008F51300086D14000809140008C3
:101370006D1400081D1400086D14000831140008D5
:101380006D140008451400086D1400085914000875
:10139000FFF79AFC03461A4641F68963C2F200033E
:1013A0001A7075E0FFF7AAFD03461A4641F68963F5
:1013B000C2F200031A706BE0FFF7A8FD03461A465D
:1013C00041F68963C2F200031A7061E0FFF7A6FDDF
:1013D00003461A4641F68963C2F200031A7057E0C9
:1013E000FFF7A4FD03461A4641F68963C2F20003E3
:1013F0001A704DE0FFF7A2FD03461A4641F68963D5
:10140000C2F200031A7043E0FFF7A0FD03461A463C
:1014100041F68963C2F200031A7039E0FFF79EFDBE
:1014200003461A4641F68963C2F200031A702FE0A0
:10143000FFF79CFD03461A4641F68963C2F200039A
:101440001A7025E0FFF79AFD03461A4641F68963B4
:10145000C2F200031A701BE0FFF7A0FD03461A4614
:1014600041F68963C2F200031A7011E041F6886305
:10147000C2F200034FF001021A704FF00600FFF7AE
:10148000EDFE03461A4641F68963C2F200031A7064
:1014900080BD00BF80B584B000AF786041F6947322
:1014A000C2F200034FF001021A7141F69473C2F2C6
:1014B00000034FF001021A7141F68C73C2F200036F
:1014C0001B68002B00F0C78041F68C73C2F200034A
:1014D0001B6818464FF0000142F210724FF00003F3
:1014E00002F09CF80346012B40F0B58041F694735E
:1014F000C2F200034FF000021A7140F24803C2F238
:1015000000031B78002B00F09980012B40F097809E
:1015100041F68163C2F200031B7803F1FF3241F60A
:101520008053C2F200039B5CFB7341F68063C2F2FE
:1015300000034FF000021A7041F68163C2F200030B
:101540001B7803F1FF33DBB241F68050C2F200009A
:10155000194600F089F80346FA7B9A425CD141F6BD
:101560008053C2F20003DA7840F24403C2F200036F
:101570001B789A4250D1FFF7D3FE41F68063C2F246
:1015800000034FF000021A7041F68163C2F20003BB
:101590004FF000021A7041F69173C2F200034FF04F
:1015A00000021A704FF48063C4F202034FF48062A9
:1015B000C4F20202128B92B242F0020292B21A8379
:1015C0004FF48063C4F202034FF48062C4F202025B
:1015D000128B92B242F0040292B21A834FF49043FB
:1015E000C4F2000341F68062C2F200021278114692
:1015F00041F68C62C2F20002525C9A8041F680632E
:10160000C2F200031B7803F10103DAB241F68063F2
:10161000C2F200031A7012E041F69073C2F20003A6
:101620004FF001021A704FF49040C4F2000040F2F3
:1016300025514FF00102FEF7A5FE00E000BF41F684
:101640009473C2F200031B6803F1010241F6947324
:10165000C2F200031A6041F69473C2F200034FF025
:1016600001021A7121E700BF80B487B000AF786033
:101670000B46FB704FF00003FB757B683B61FB780A
:10168000FB732BE03B691A78FB7D82EA0303FB7551
:101690003B6903F101033B61FB7D03F00103DBB216
:1016A000002B02D04FF0800301E04FF00003FA7DE1
:1016B0004FEA5202D2B2D1B21A460B4642EA0303B3
:1016C000DBB2FB75FB7D5BB2002B03DAFB7D83F0A5
:1016D0003C03FB75FB7B03F1FF33FB73FB7B002BB0
:1016E000D0D1FB7D184607F11C07BD4680BC704772
:1016F00080B582B000AF44F2D453C0F600037B60E3
:1017000040F20003C2F200033B600BE07B681A6802
:101710003B681A603B6803F104033B607B6803F19C
:1017200004037B603A6840F26C03C2F200039A4201
:10173000ECD30A480A494FF000028842B8BF40F88B
:10174000042BFADBDFF81C00016841F47001016032
:1017500000F00EF807F10807BD4680BD70000020BC
:10176000DC1F002088ED00E080B400AFFEE700BF82
:1017700080B500AF01F0A4FC00F00EFA4FF00000BD
:10178000FFF752F900F0AAFCFEE700BF80B400AFFB
:10179000FEE700BF80B483B000AF78603960FEE739
:1017A00080B582B000AF02F0E9FB03467B607B6846
:1017B00007F10807BD4680BD80B489B000AF7860EE
:1017C0004FF00003BB614FF000037B614FF000035B
:1017D000FB614FF002033B614FF00003FB604FF0F1
:1017E0000203BB604FF46053C4F202039B6803F032
:1017F0000C03BB61BB69042B0AD0082B0FD0002B54
:1018000064D17A684FF41053C0F2F403136064E0BB
:101810007A684FF49053C0F27A0313605DE04FF49E
:101820006053C4F202035B6803F480034FEA9353EE
:10183000FB604FF46053C4F202035B6803F03F03A4
:10184000BB60FB68002B16D04FF49053C0F27A03B4
:10185000BA68B3FBF2F24FF46053C4F202035B6860
:10186000194647F6C07301EA03034FEA931303FBDB
:1018700002F3FB6115E04FF41053C0F2F403BA68B1
:10188000B3FBF2F24FF46053C4F202035B681946F3
:1018900047F6C07301EA03034FEA931303FB02F315
:1018A000FB614FF46053C4F202035B6803F44033FE
:1018B0004FEA134303F101034FEA43033B61FA6923
:1018C0003B69B2FBF3F27B681A6006E07A684FF47A
:1018D0001053C0F2F403136000BF4FF46053C4F21E
:1018E00002039B6803F0F003BB61BB694FEA13136B
:1018F000BB6140F24C03C2F20003BA699B181B782B
:10190000DBB27B617B681A687B6922FA03F27B6831
:101910005A604FF46053C4F202039B6803F4E0532F
:10192000BB61BB694FEA9323BB6140F24C03C2F237
:101930000003BA699B181B78DBB27B617B685A682D
:101940007B6922FA03F27B689A604FF46053C4F219
:1019500002039B6803F46043BB61BB694FEA5333E6
:10196000BB6140F24C03C2F20003BA699B181B78BA
:10197000DBB27B617B685A687B6922FA03F27B6881
:10198000DA6007F12407BD4680BC704780B483B09D
:1019900000AF78600B46FB70FB78002B0ED04FF445
:1019A0006053C4F202034FF46052C4F20202126B9D
:1019B00011467A6841EA02021A630FE04FF460535D
:1019C000C4F202034FF46052C4F20202126B1146D9
:1019D0007A686FEA020201EA02021A6307F10C0751
:1019E000BD4680BC704700BF80B483B000AF786054
:1019F0000B46FB70FB78002B0ED04FF46053C4F203
:101A000002034FF46052C4F20202126C11467A686B
:101A100041EA02021A640FE04FF46053C4F2020379
:101A20004FF46052C4F20202126C11467A686FEAF7
:101A3000020201EA02021A6407F10C07BD4680BCEB
:101A4000704700BF80B483B000AF78600B46FB7076
:101A5000FB78002B0ED04FF46053C4F202034FF416
:101A60006052C4F20202526C11467A6841EA0202E4
:101A70005A640FE04FF46053C4F202034FF4605213
:101A8000C4F20202526C11467A686FEA020201EA5D
:101A900002025A6407F10C07BD4680BC704700BFC4
:101AA00080B500AF4FF48060C4F200004FF0010138
:101AB00002F052FB0346002B2ED04FF48060C4F29C
:101AC00000004FF0010102F079FB4FF48063C4F293
:101AD00000031B889BB203F01003002B0ED040F2D2
:101AE0005C03C2F200031B68A3F5805202F1FF32CF
:101AF00040F25C03C2F200031A600DE040F25C03A6
:101B0000C2F200031B6803F5805202F1010240F2A9
:101B10005C03C2F200031A6080BD00BF80B500AF55
:101B20004FF00000C4F201004FF0010102F014FB7D
:101B30000346002B2ED04FF00000C4F201004FF0FE
:101B4000010102F03BFB4FF00003C4F201031B88CC
:101B50009BB203F01003002B0ED040F26003C2F2E0
:101B600000031B68A3F5805202F1FF3240F26003CC
:101B7000C2F200031A600DE040F26003C2F20003FB
:101B80001B6803F5805202F1010240F26003C2F2C9
:101B900000031A6080BD00BF80B58AB004AF4FF06B
:101BA00001004FF00101FFF7F1FE4FF002004FF08E
:101BB0000101FFF719FF4FF001004FF00101FFF79E
:101BC00041FF07F10C03184602F062FA4FF480530C
:101BD0003B614FF00003BB814FF00003BB824FF02D
:101BE0001003FB8107F10C034FF48060C4F2000086
:101BF000194602F0D1F907F10C034FF00000C4F2CE
:101C00000100194602F0C8F94FF48060C4F20000E8
:101C10004FF003014FF002024FF0020302F0E0FA2E
:101C20004FF00000C4F201004FF003014FF0020238
:101C30004FF0020302F0D4FA4FF4407002F0BAF809
:101C40004FF01D033B724FF00E037B724FF00E03FB
:101C5000BB724FF00103FB7207F10803184602F054
:101C6000BDF84FF4407002F0A5F84FF019033B7235
:101C70004FF00F037B724FF00D03BB724FF0010367
:101C8000FB7207F10803184602F0A8F84FF0C003F2
:101C90003B604FF002033B714FF00103FB714FF0CB
:101CA00000037B713B464FF00000C4F2020019466E
:101CB00001F040F84FF00000C4F202004FF00601BE
:101CC0004FF0020201F0E2F84FF00000C4F202000F
:101CD0004FF007014FF0020201F0D8F84FF44073C3
:101CE0003B604FF002033B714FF00103FB714FF07B
:101CF00000037B713B464FF00000C4F2020019461E
:101D000001F018F84FF00000C4F202004FF0080193
:101D10004FF0010201F0BAF84FF00000C4F20200E7
:101D20004FF009014FF0010201F0B0F84FF000034D
:101D3000C4F201034FF000025A624FF48063C4F210
:101D400000034FF000025A6240F25C03C2F200034B
:101D50004FF40042C8F200021A6040F26003C2F27F
:101D600000034FF40042C8F200021A604FF0000076
:101D7000C4F201004FF0010102F020FA4FF480603C
:101D8000C4F200004FF0010102F018FA4FF0000019
:101D9000C4F201004FF001014FF0010202F0B6F968
:101DA0004FF48060C4F200004FF001014FF00102D7
:101DB00002F0ACF94FF00000C4F201004FF0010155
:101DC00002F084F94FF48060C4F200004FF001018A
:101DD00002F07CF944F2AC53C0F600034FF001026C
:101DE00000924FF0000201924FF0000202924FF079
:101DF0000002039241F61560C0F6000019464FF04C
:101E000080024FF0000300F04BF807F11807BD46C1
:101E100080BD00BF80B582B000AF786041F694739A
:101E2000C2F200034FF001021A7341F69473C2F23A
:101E300000034FF000021A734FF48063C4F20003F2
:101E40005B6A1A4640F25C03C2F200031B68D218B8
:101E500041F6A473C2F200039A604FF00003C4F28B
:101E600001035B6A1A4640F26003C2F200031B687A
:101E7000D21841F6A473C2F200035A6241F6947379
:101E8000C2F200039B6803F1010241F69473C2F2AF
:101E900000039A604FF0320000F0F2F8C5E700BF8F
:101EA00080B58AB002AFF860B9603B601346FB8032
:101EB000FB68002B04D14FF0500080F31188FEE73F
:101EC000BB6A042B04D94FF0500080F31188FEE761
:101ED000FB881846396B00F017FEB861BB69002B10
:101EE00000F0B080BB691A6BFB8803F1FF334FEA47
:101EF0008303D3187B617B6923F007037B617B69D4
:101F000003F00703002B04D04FF0500080F311883A
:101F1000FEE7FB880093B869B968BA6A7B6B00F08A
:101F2000D1FC7869F9683A6801F05EFD03461A460B
:101F3000BB691A60FB6A002B02D0FB6ABA691A609F
:101F400001F0E6FD40F25013C2F200031B6803F1FA
:101F5000010240F25013C2F200031A6040F278030B
:101F6000C2F200031B68002B0FD140F27803C2F2CB
:101F70000003BA691A6040F25013C2F200031B68F2
:101F8000012B18D100F0DCFC15E040F26013C2F226
:101F900000031B68002B0ED140F27803C2F200034D
:101FA0001B68DA6ABB6A9A4205D840F27803C2F22B
:101FB0000003BA691A60BB69DA6A40F25813C2F2C8
:101FC00000031B689A4206D9BB69DA6A40F25813CB
:101FD000C2F200031A6040F27413C2F200031B68DD
:101FE00003F1010240F27413C2F200031A60BB69EC
:101FF000DA6A40F25C13C2F200031B689A4206D907
:10200000BB69DA6A40F25C13C2F200031A60BB6972
:10201000DA6A13464FEA83039B184FEA83031A4692
:1020200040F27C03C2F20003D218BB6903F104033F
:102030001046194600F0B4FF4FF00103FB6101F0B8
:102040007DFD02E04FF0FF33FB61FB69012B11D1F5
:1020500040F26013C2F200031B68002B0AD040F26A
:102060007803C2F200031B68DA6ABB6A9A4201D2A3
:1020700001F042FDFB69184607F12007BD4680BD0F
:1020800080B584B000AF78604FF00003FB607B68E0
:10209000002B19D000F064F840F25413C2F2000390
:1020A0001A687B68D318BB6040F27803C2F2000361
:1020B0001B6803F10403184600F0D8FFB86800F06D
:1020C000DDFC00F05FF8F860FB68002B01D101F047
:1020D00013FD07F11007BD4680BD00BF80B586B077
:1020E00004AF44F2B853C0F600034FF00002009270
:1020F0004FF0000201924FF0000202924FF00002F6
:10210000039242F6A100C0F6000019464FF04602C5
:102110004FF00003FFF7C4FE78607B68012B13D1FA
:102120004FF0500080F3118840F26013C2F20003B8
:102130004FF001021A6040F25413C2F200034FF054
:1021400000021A6001F0A0FC7B68002B04D14FF064
:10215000500080F31188FEE707F10807BD4680BDF7
:1021600080B400AF40F26413C2F200031B6803F1B5
:10217000010240F26413C2F200031A60BD4680BC43
:10218000704700BF90B583B000AF4FF000037B6095
:1021900040F26413C2F200031B68002B04D14FF01D
:1021A000500080F31188FEE701F0B2FC40F26413A6
:1021B000C2F200031B6803F1FF3240F26413C2F263
:1021C00000031A6040F26413C2F200031B68002B84
:1021D00040F0868040F25013C2F200031B68002BCF
:1021E0007ED04FF000033B603DE040F21013C2F29E
:1021F0000003DB68DB681C4604F11803184600F096
:1022000035FF04F10403184600F030FFE26A40F2A3
:102210005C13C2F200031B689A4205D9E26A40F2DD
:102220005C13C2F200031A60E26A13464FEA8303AA
:102230009B184FEA83031A4640F27C03C2F2000364
:10224000D21804F104031046194600F0A9FEE26A10
:1022500040F27803C2F200031B68DB6A9A4202D3A1
:102260004FF001033B6040F21013C2F200031B6801
:10227000002BBAD140F26813C2F200031B68002B96
:1022800018D00DE000F034F840F26813C2F20003F9
:102290001B6803F1FF3240F26813C2F200031A60B8
:1022A00040F26813C2F200031B68002BEAD14FF022
:1022B00001033B603B68012B06D040F26C13C2F275
:1022C00000031B68012B0BD14FF001037B6040F230
:1022D0006C13C2F200034FF000021A6001F00CFC14
:1022E00001F02CFC7B68184607F10C07BD4690BD39
:1022F00080B584B000AF40F26413C2F200031B68E3
:10230000002B40F0CD8040F25413C2F200031B6852
:1023100003F1010240F25413C2F200031A6040F2CA
:102320005413C2F200031B68002B4DD140F2081376
:10233000C2F200031B681B68002B04D04FF0500052
:1023400080F31188FEE740F20813C2F200031B6815
:10235000FB6040F20C13C2F200031A6840F208134B
:10236000C2F200031A6040F20C13C2F20003FA68D2
:102370001A6040F27013C2F200031B6803F10102FD
:1023800040F27013C2F200031A6040F20813C2F266
:1023900000031B681B68002B07D140F26403C2F2E4
:1023A00000034FF0FF321A600EE040F20813C2F251
:1023B00000031B68DB68DB68BB60BB685A6840F2DF
:1023C0006403C2F200031A6040F25413C2F2000325
:1023D0001A6840F26403C2F200031B689A426BD38E
:1023E00040F20813C2F200031B681B68002B07D1E0
:1023F00040F26403C2F200034FF0FF321A605BE068
:1024000040F20813C2F200031B68DB68DB68BB60A4
:10241000BB685B687B6040F25413C2F200031A6829
:102420007B689A4206D240F26403C2F200037A68E3
:102430001A6041E0BB6803F10403184600F016FE81
:10244000BB689B6A002B05D0BB6803F118031846D4
:1024500000F00CFEBB68DA6A40F25C13C2F20003C3
:102460001B689A4206D9BB68DA6A40F25C13C2F272
:1024700000031A60BB68DA6A13464FEA83039B18AD
:102480004FEA83031A4640F27C03C2F20003D218DB
:10249000BB6803F104031046194600F081FD9FE775
:1024A00040F26813C2F200031B6803F1010240F21C
:1024B0006813C2F200031A6007F11007BD4680BD21
:1024C00080B582B000AF40F26413C2F200031B6813
:1024D000002B07D040F26C13C2F200034FF0010250
:1024E0001A609CE040F27803C2F200031B681A688D
:1024F00040F27803C2F200031B681B6B9A420FD8AC
:1025000040F27803C2F200031A6840F27803C2F284
:1025100000031B6803F1340310461946FFF73AF92C
:1025200040F27803C2F200031B681B6B184644F2AA
:10253000C051C0F600014FF0140201F0C7FE03467F
:10254000002B29D040F27803C2F200031A6840F24F
:102550007803C2F200031B6803F1340310461946E6
:10256000FFF718F919E040F25C13C2F200031B6890
:10257000002B04D14FF0500080F31188FEE740F2A9
:102580005C13C2F200031B6803F1FF3240F25C13DC
:10259000C2F200031A6000E000BF40F25C13C2F216
:1025A00000031A6813464FEA83039B184FEA83031C
:1025B0001A4640F27C03C2F20003D3181B68002BBA
:1025C000D1D040F25C13C2F200031A6813464FEAFE
:1025D00083039B184FEA83031A4640F27C03C2F23E
:1025E0000003D3187B607B685B685B681A467B6876
:1025F0005A607B685A687B6803F108039A4205D1E8
:102600007B685B685B681A467B685A607B685B68BE
:10261000DB681A4640F27803C2F200031A6007F141
:102620000807BD4680BD00BF80B584B000AF7860AC
:1026300039607B68002B04D14FF0500080F3118883
:10264000FEE740F27803C2F200031B6803F11803AF
:102650007868194600F0CEFC40F27803C2F200031D
:102660001B6803F10403184600F000FD3B68B3F15A
:10267000FF3F0ED140F27803C2F200031B6803F162
:10268000040340F23C10C2F20000194600F088FC3E
:102690000AE040F25413C2F200031A683B68D318F0
:1026A000FB60F86800F0EAF907F11007BD4680BD4D
:1026B00080B584B000AF78607B68DB68DB68BB60A6
:1026C000BB68002B04D14FF0500080F31188FEE767
:1026D000BB6803F11803184600F0C8FC40F264130D
:1026E000C2F200031B68002B2BD1BB6803F104036B
:1026F000184600F0BBFCBB68DA6A40F25C13C2F219
:1027000000031B689A4206D9BB68DA6A40F25C1380
:10271000C2F200031A60BB68DA6A13464FEA830309
:102720009B184FEA83031A4640F27C03C2F200036F
:10273000D218BB6803F104031046194600F030FCC0
:1027400009E0BB6803F1180340F21010C2F2000068
:10275000194600F025FCBB68DA6A40F27803C2F241
:1027600000031B68DB6A9A4203D34FF00103FB604E
:1027700002E04FF00003FB60FB68184607F110070A
:10278000BD4680BD80B483B000AF78607B68002B0D
:1027900004D14FF0500080F31188FEE740F270132F
:1027A000C2F200031A687B681A6040F25413C2F246
:1027B00000031A687B685A6007F10C07BD4680BCAD
:1027C000704700BF80B584B000AF786039607B6827
:1027D000002B04D14FF0500080F31188FEE73B68D6
:1027E000002B04D14FF0500080F31188FEE701F078
:1027F0008FF93B681B68B3F1FF3F03D14FF0000333
:10280000FB6038E07B681A6840F27013C2F2000384
:102810001B689A420CD07B685A6840F25413C2F28B
:1028200000031B689A4203D84FF00103FB6022E0CB
:1028300040F25413C2F200031A687B685B68D21A34
:102840003B681B689A4213D23B681A687B685968D8
:1028500040F25413C2F200031B68CB1AD2183B6833
:102860001A607868FFF78EFF4FF00003FB6002E00C
:102870004FF00103FB6001F061F9FB68184607F1B6
:102880001007BD4680BD00BF80B400AF40F26C139E
:10289000C2F200034FF001021A60BD4680BC7047CF
:1028A00080B582B000AF786000F09CF840F27C0305
:1028B000C2F200031B68012B01D901F01DF9FEF7DC
:1028C0006FFFF1E780B584B000AFF860B9607A605F
:1028D0003B60FB6803F134031A46BB681046194697
:1028E0004FF00A0201F020FEFB684FF0000283F86F
:1028F0003D207B68042B02D94FF004037B60FB680A
:102900007A68DA62FB687A681A64FB6803F1040388
:10291000184600F037FBFB6803F11803184600F077
:1029200031FBFB68FA681A617B68C3F10502FB683A
:102930009A61FB68FA685A6207F11007BD4680BDCC
:1029400080B582B000AF4FF000037B6013E07A687F
:1029500013464FEA83039B184FEA83031A4640F25B
:102960007C03C2F20003D318184600F0E7FA7B6834
:1029700003F101037B607B68042BE8D940F2E0009F
:10298000C2F2000000F0DAFA40F2F400C2F20000F5
:1029900000F0D4FA40F21010C2F2000000F0CEFABB
:1029A00040F22410C2F2000000F0C8FA40F23C10DD
:1029B000C2F2000000F0C2FA40F20813C2F20003B3
:1029C00040F2E002C2F200021A6040F20C13C2F2BE
:1029D000000340F2F402C2F200021A6007F1080795
:1029E000BD4680BD80B582B000AF40F23813C2F260
:1029F00000031B68002B3CD0FFF7B2FB40F224130E
:102A0000C2F200031B68002B14BF002301237B606C
:102A1000FFF7B8FB7B68002B2BD101F079F840F26F
:102A20002413C2F20003DB68DB683B603B6803F100
:102A30000403184600F01AFB40F25013C2F20003E0
:102A40001B6803F1FF3240F25013C2F200031A6018
:102A500040F23813C2F200031B6803F1FF3240F268
:102A60003813C2F200031A6001F068F8386800F009
:102A700085F807F10807BD4680BD00BF80B582B06C
:102A800000AF786040F27803C2F200031B687A68F6
:102A90005A6040F25413C2F200031B687A689A42EB
:102AA00010D240F20C13C2F200031A6840F278030D
:102AB000C2F200031B6803F104031046194600F03C
:102AC00099FA1DE040F20813C2F200031A6840F2BE
:102AD0007803C2F200031B6803F104031046194691
:102AE00000F088FA40F26403C2F200031B687A68BF
:102AF0009A4205D240F26403C2F200037A681A6077
:102B000007F10807BD4680BD80B584B000AF03461D
:102B10003960FB804FF0440001F0D4F90346FB60BC
:102B2000FB68002B23D03B68002B07D1FB884FEAC2
:102B30008303184601F0C6F9034600E03B68FA68D3
:102B40001363FB681B6B002B06D1F86801F00CFACD
:102B50004FF00003FB600AE0FB681A6BFB884FEA4A
:102B6000830310464FF0A5011A4601F083FCFB6871
:102B7000184607F11007BD4680BD00BF80B582B082
:102B800000AF78607B681B6B184601F0EDF9786840
:102B900001F0EAF907F10807BD4680BD80B483B0B3
:102BA00000AF40F27803C2F200031B687B607B68D1
:102BB000184607F10C07BD4680BC704780B584B04D
:102BC00000AF78607B68FB607B68002B04D14FF01E
:102BD000500080F31188FEE7FB68DA6A40F2780360
:102BE000C2F200031B68DB6A9A4257D240F27803B4
:102BF000C2F200031B68DB6AC3F10502FB689A613D
:102C0000FB685969FB68DA6A13464FEA83039B182D
:102C10004FEA83031A4640F27C03C2F20003D31842
:102C2000994233D1FB6803F10403184600F01EFA01
:102C300040F27803C2F200031B68DA6AFB68DA62CA
:102C4000FB68DA6A40F25C13C2F200031B689A4226
:102C500006D9FB68DA6A40F25C13C2F200031A601C
:102C6000FB68DA6A13464FEA83039B184FEA830333
:102C70001A4640F27C03C2F20003D218FB6803F14B
:102C800004031046194600F08BF907E040F2780380
:102C9000C2F200031B68DA6AFB68DA6207F1100708
:102CA000BD4680BD80B584B000AF78607B68FB60B6
:102CB0007B68002B3AD0FB68DA6AFB681B6C9A428F
:102CC00034D0FB6803F10403184600F0CFF9FB6829
:102CD0001A6CFB68DA62FB68DB6AC3F10502FB6809
:102CE0009A61FB68DA6A40F25C13C2F200031B6867
:102CF0009A4206D9FB68DA6A40F25C13C2F200031A
:102D00001A60FB68DA6A13464FEA83039B184FEA9E
:102D100083031A4640F27C03C2F20003D218FB6818
:102D200003F104031046194600F03AF907F11007C1
:102D3000BD4680BD80B487B000AF786039604FF089
:102D400000037B614FF000033B614FF00003FB6029
:102D50004FF000037B618FE07B694FF0010202FAC4
:102D600003F33B613B681A683B6902EA0303FB60BB
:102D7000FA683B699A427BD17B681B681A467B697B
:102D80004FEA43034FF0030101FA03F36FEA030331
:102D90001A407B681A607B681B681A463B681B797F
:102DA00019467B694FEA430301FA03F31A437B6830
:102DB0001A603B681B79012B03D03B681B79022BFF
:102DC00038D17B689B681A467B694FEA43034FF012
:102DD000030101FA03F36FEA03031A407B689A6068
:102DE0007B689B681A463B685B7919467B694FEAAA
:102DF000430301FA03F31A437B689A607B685B68BC
:102E00001A467B699BB24FF0010101FA03F36FEAA6
:102E100003031A407B685A607B685B681A463B680C
:102E20009B7919467B699BB201FA03F39BB21A4363
:102E30007B685A607B68DB681A467B699BB24FEA05
:102E400043034FF0030101FA03F36FEA03031A404F
:102E50007B68DA607B68DB681A463B68DB79194679
:102E60007B694FEA430301FA03F31A437B68DA6094
:102E70007B6903F101037B617B690F2B7FF66CAFEC
:102E800007F11C07BD4680BC704700BF80B485B009
:102E900000AF786013460A467A807B704FF00003DB
:102EA000FB604FF00003BB607A787B8803F0070378
:102EB0004FEA830302FA03F3FB607B884FEAD303F4
:102EC0009BB21A467B884FEAD3039BB219467B68B4
:102ED00001F1080153F8213019467B8803F00703FC
:102EE0004FEA83034FF00F0000FA03F36FEA030386
:102EF00019407B6802F1080243F822107B884FEAF0
:102F0000D3039BB21A467B6802F1080253F82230C1
:102F10001A46FB6842EA0303BB607B884FEAD3038F
:102F20009BB21A467B6802F10802B96843F8221086
:102F300007F11407BD4680BC704700BF80B483B062
:102F400000AF78607B6803F108031A467B685A601B
:102F50007B684FF0FF329A607B6803F108031A46E2
:102F60007B68DA607B6803F108031A467B681A61A4
:102F70007B684FF000021A6007F10C07BD4680BC69
:102F8000704700BF80B483B000AF78607B684FF0BB
:102F900000021A6107F10C07BD4680BC704700BFF4
:102FA00080B485B000AF786039607B685B68FB6097
:102FB000FB685B681A463B685A607B685A683B68E6
:102FC0009A60FB685B683A689A603A68FB685A6086
:102FD0003A687B685A603B687A681A617B681B684C
:102FE00003F101027B681A6007F11407BD4680BC3B
:102FF000704700BF80B485B000AF786039603B682F
:103000001B68BB60BB68B3F1FF3F03D17B681B69E2
:10301000FB600EE07B6803F10803FB6002E0FB68E5
:103020005B68FB60FB685B681B681A46BB689A427A
:10303000F5D9FB685B681A463B685A603B685B6879
:103040003A689A603B68FA689A603A68FB685A6026
:103050003B687A681A617B681B6803F101027B6830
:103060001A6007F11407BD4680BC704780B485B074
:1030700000AF78607B685B687A6892689A607B686A
:103080009B687A6852685A607B681B69FB60FB68C2
:103090005A687B689A4203D17B689A68FB685A60D9
:1030A0007B684FF000021A61FB681B6803F1FF3276
:1030B000FB681A6007F11407BD4680BC704700BF6B
:1030C00080B500AF4FF46053C4F202034FF4605276
:1030D000C4F20202126842F001021A604FF4605317
:1030E000C4F202034FF000029A604FF46053C4F23E
:1030F00002034FF46052C4F20202126822F084729A
:1031000022F480321A604FF46053C4F2020343F297
:103110001002C2F200425A604FF46053C4F202033C
:103120004FF46052C4F20202126822F480221A6044
:103130004FF46053C4F202034FF00002DA6000F073
:1031400009F84FF46D43CEF200034FF000629A602D
:1031500080BD00BF80B483B000AF4FF000037B6040
:103160004FF000033B604FF46053C4F202034FF48E
:103170006052C4F20202126842F480321A604FF4C4
:103180006053C4F202031B6803F400333B607B68A6
:1031900003F101037B603B68002B03D17B68B3F52F
:1031A000A06FECD14FF46053C4F202031B6803F428
:1031B0000033002B03D04FF001033B6002E04FF0DF
:1031C00000033B603B68012B69D14FF46053C4F2AC
:1031D00002034FF46052C4F2020292689A604FF404
:1031E0006053C4F202034FF46052C4F202029268C8
:1031F00042F400429A604FF46053C4F202034FF469
:103200006052C4F20202926842F4A0529A604FF4F3
:103210006053C4F2020343F20402C0F643025A6050
:103220004FF46053C4F202034FF46052C4F202023E
:10323000126842F080721A6000BF4FF46053C4F20B
:1032400002031B6803F00073002BF6D04FF4705399
:10325000C4F2020340F201721A604FF46053C4F2E8
:1032600002034FF46052C4F20202926822F0030299
:103270009A604FF46053C4F202034FF46052C4F2F8
:103280000202926842F002029A6000BF4FF460535B
:10329000C4F202039B6803F00C03082BF6D107F17C
:1032A0000C07BD4680BC704780B582B000AF786027
:1032B00039607B68002B04D14FF0500080F31188F7
:1032C000FEE700F025FC7B681A687B68DB6B796899
:1032D000096C01FB03F3D2187B685A607B684FF0DE
:1032E00000029A637B681A687B689A607B681A6838
:1032F0007B68DB6B03F1FF337968096C01FB03F337
:10330000D2187B68DA607B684FF0FF325A647B68C2
:103310004FF0FF329A643B68002B0FD17B681B692A
:10332000002B17D07B6803F110031846FFF7C0F994
:103330000346012B0ED100F0DFFB0BE07B6803F1AD
:1033400010031846FFF7FAFD7B6803F124031846C3
:10335000FFF7F4FD00F0F2FB4FF00103184607F110
:103360000807BD4680BD00BF80B588B000AFF860DB
:10337000B9601346FB714FF00003FB61FB68002B43
:103380002BD04FF04C0000F09DFD0346BB61BB69A4
:10339000002B22D0FB68BA6802FB03F303F10103A0
:1033A0007B61786900F08EFD03461A46BB691A609E
:1033B000BB691B68002B0DD0BB69FA68DA63BB6977
:1033C000BA681A64B8694FF00101FFF76DFFBB6975
:1033D000FB6102E0B86900F0C7FDFB69002B04D176
:1033E0004FF0500080F31188FEE7FB69184607F1A3
:1033F0002007BD4680BD00BF80B588B000AFF86033
:10340000B9607A603B604FF00003FB61FB68002B02
:1034100004D14FF0500080F31188FEE7BB68002B09
:1034200003D1FB681B6C002B02D14FF0010301E0BC
:103430004FF00003002B05D14FF0500080F31188AE
:10344000FEE700BF00F064FBFB689B6B1A46FB685D
:10345000DB6B9A4218D2F868B9683A6800F0BCF998
:10346000FB685B6A002B0AD0FB6803F12403184653
:10347000FFF71EF90346012B01D100F03DFB00F0E0
:103480005DFB4FF001035DE07B68002B04D100F091
:1034900055FB4FF0000355E0FB69002B07D107F106
:1034A00014031846FFF76EF94FF00103FB6100F0BB
:1034B00045FBFEF755FE00F02BFBFB685B6CB3F1A0
:1034C000FF3F03D1FB684FF000025A64FB689B6C1E
:1034D000B3F1FF3F03D1FB684FF000029A6400F0A4
:1034E0002DFB07F1140207F1040310461946FFF7FC
:1034F00069F90346002B1ED1F86800F05DFA034617
:10350000002B12D0FB6803F110027B6810461946AD
:10351000FFF78AF8F86800F0E9F9FEF733FE034692
:10352000002B8ED100F0E8FA8CE7F86800F0DEF9A5
:10353000FEF728FE86E7F86800F0D8F9FEF722FECD
:103540004FF00003184607F12007BD4680BD00BFBD
:1035500080B586B000AFF860B9607A603B60FB6808
:10356000002B04D14FF0500080F31188FEE7BB68B8
:10357000002B03D1FB681B6C002B02D14FF0010321
:1035800001E04FF00003002B04D14FF0500080F316
:103590001188FEE74FF000033B614FF0500080F3CD
:1035A0001188FB689B6B1A46FB68DB6B9A4228D23A
:1035B000F868B9683A6800F00FF9FB689B6CB3F1E2
:1035C000FF3F14D1FB685B6A002B16D0FB6803F148
:1035D00024031846FFF76CF80346002B0DD07B68D8
:1035E000002B0AD07B684FF001021A6005E0FB68EF
:1035F0009B6C03F10102FB689A644FF001037B614D
:1036000002E04FF000037B614FF0000080F311886F
:103610007B69184607F11807BD4680BD80B588B0A4
:1036200000AFF860B9607A603B604FF00003FB6167
:10363000FB68002B04D14FF0500080F31188FEE7A7
:10364000BB68002B03D1FB681B6C002B02D14FF031
:10365000010301E04FF00003002B05D14FF05000B3
:1036600080F31188FEE700BF00F052FAFB689B6B05
:10367000002B40D0FB68DB68BB61F868B96800F0DC
:103680000DF93B68002B1FD1FB689B6B03F1FF32E8
:10369000FB689A63FB681B68002B05D1FFF77EFA75
:1036A00003461A46FB685A60FB681B69002B1DD055
:1036B000FB6803F110031846FEF7FAFF0346012BDF
:1036C00014D100F019FA11E0FB68BA69DA60FB68FE
:1036D0005B6A002B0AD0FB6803F124031846FEF74F
:1036E000E7FF0346002B01D000F006FA00F026FAAF
:1036F0004FF001036BE07B68002B04D100F01EFA51
:103700004FF0000363E0FB69002B07D107F11003C2
:103710001846FFF737F84FF00103FB6100F00EFA8F
:10372000FEF71EFD00F0F4F9FB685B6CB3F1FF3FA0
:1037300003D1FB684FF000025A64FB689B6CB3F145
:10374000FF3F03D1FB684FF000029A6400F0F6F9E6
:1037500007F1100207F1040310461946FFF732F88B
:103760000346002B2CD1F86800F010F90346002B1B
:1037700020D0FB681B68002B08D100F0C9F9FB685A
:103780005B681846FFF71AFA00F0D8F9FB6803F1F6
:1037900024027B6810461946FEF746FFF86800F0E1
:1037A000A5F8FEF7EFFC0346002B7FF45CAF00F0BA
:1037B000A3F959E7F86800F099F8FEF7E3FC53E73E
:1037C000F86800F093F8FEF7DDFC4FF000031846B0
:1037D00007F12007BD4680BD80B584B000AFF8601A
:1037E000B9607A60FB681B6C002B0DD1FB681B680D
:1037F000002B48D1FB685B681846FFF753FAFB685B
:103800004FF000025A603EE07B68002B1AD1FB6843
:103810009A68FB681B6C1046B9681A4600F082FD76
:10382000FB689A68FB681B6CD218FB689A60FB689F
:103830009A68FB685B689A4225D3FB681A68FB6844
:103840009A6020E0FB68DA68FB681B6C1046B96878
:103850001A4600F067FDFB68DA68FB681B6CC3F171
:103860000003D218FB68DA60FB68DA68FB681B6843
:103870009A4208D2FB685A68FB681B6CC3F10003CC
:10388000D218FB68DA60FB689B6B03F10102FB68EE
:103890009A6307F11007BD4680BD00BF80B582B0B6
:1038A00000AF786039607B681B68002B19D07B689B
:1038B000DA687B681B6CD2187B68DA607B68DA6830
:1038C0007B685B689A4203D37B681A687B68DA601E
:1038D0007B68DA687B681B6C386811461A4600F012
:1038E00021FD07F10807BD4680BD00BF80B582B04D
:1038F00000AF786000F00CF914E07B685B6A002B85
:1039000015D07B6803F124031846FEF7D1FE034669
:10391000002B01D0FEF7B8FF7B689B6C03F1FF32F0
:103920007B689A647B689B6C002BE6DC00E000BF40
:103930007B684FF0FF329A6400F000F900F0E8F87D
:1039400014E07B681B69002B15D07B6803F1100322
:103950001846FEF7ADFE0346002B01D0FEF794FF9C
:103960007B685B6C03F1FF327B685A647B685B6C3D
:10397000002BE6DC00E000BF7B684FF0FF325A64AA
:1039800000F0DCF807F10807BD4680BD80B584B0C3
:1039900000AF786000F0BCF87B689B6B002B14BF15
:1039A00000230123FB6000F0C9F8FB68184607F10B
:1039B0001007BD4680BD00BF80B584B000AF786001
:1039C00000F0A6F87B689B6B1A467B68DB6B9A421B
:1039D00014BF00230123FB6000F0B0F8FB68184619
:1039E00007F11007BD4680BD80B485B000AFF86018
:1039F000B9607A60FB68A3F10403FB60FB684FF0D9
:103A000080721A60FB68A3F10403FB60BA68FB686C
:103A10001A60FB68A3F10403FB60FB684FF000022F
:103A20001A60FB68A3F11403FB607A68FB681A60F4
:103A3000FB68A3F10403FB60FB686FF002021A60ED
:103A4000FB68A3F12003FB60FB68184607F114072D
:103A5000BD4680BC704700BF054B19680868B0E8D8
:103A6000F04F80F309884FF0000080F31188704711
:103A70007800002003480068006880F3088862B678
:103A800000DF00BF08ED00E080B500AF4EF6205328
:103A9000CEF200034EF62052CEF20002126842F43B
:103AA00070021A604EF62053CEF200034EF62052FA
:103AB000CEF20002126842F070421A6000F09EF8E6
:103AC00040F26803C2F200034FF000021A6000F0F7
:103AD000A9F84EF63473CEF200034EF63472CEF2ED
:103AE0000002126842F040421A60FFF7C3FF4FF035
:103AF0000003184680BD00BF80B400AF4EF60453EB
:103B0000CEF200034FF080521A60BD4680BC704771
:103B100080B400AF4FF0500080F3118840F268038A
:103B2000C2F200031B6803F1010240F26803C2F213
:103B300000031A60BD4680BC704700BF80B400AF70
:103B400040F26803C2F200031B6803F1FF3240F247
:103B50006803C2F200031A6040F26803C2F2000375
:103B60001B68002B03D14FF0000080F31188BD4685
:103B700080BC7047EFF30980114B1A681EF0100FDC
:103B800008BF20ED108A20E9F04F10602DE90840B1
:103B90004FF0500080F31188FEF792FC4FF00000C8
:103BA00080F31188BDE8084019680868B0E8F04F54
:103BB0001EF0100F08BFB0EC108A80F30988704720
:103BC0007800002080B582B000AF4EF60453CEF2EC
:103BD00000034FF080521A604FF000037B604FF0FB
:103BE000500080F31188FEF783FB4FF0000080F354
:103BF000118807F10807BD4680BD00BF80B400AF43
:103C00004EF21403CEF200034BF67F321A604EF2EE
:103C10001003CEF200034FF007021A60BD4680BCCD
:103C2000704700BFDFF80C00016841F470010160CB
:103C30007047000088ED00E080B400AF41F6A47347
:103C4000C2F200034FF000021A7041F6A473C2F2F0
:103C500000034FF001021A7141F6A473C2F200038F
:103C60004FF000025A7141F6A473C2F200034FF004
:103C700040029A7141F6A473C2F200034FF00A02A7
:103C8000DA7141F6A473C2F200034FF40042C8F2A5
:103C900000029A6041F6A473C2F200034FF00002E2
:103CA000DA6041F6A473C2F200034FF000021A7406
:103CB00041F6A473C2F200034FF001021A7741F6F5
:103CC000A473C2F200034FF0010283F8202041F6F2
:103CD000A473C2F200034FF0000283F8212041F6E2
:103CE000A473C2F200034FF0400283F8222041F691
:103CF000A473C2F200034FF00A0283F8232041F6B6
:103D0000A473C2F200034FF40042C8F200025A62E8
:103D100041F6A473C2F200034FF000029A6241F62A
:103D2000A473C2F200034FF0000283F82C20BD46BA
:103D300080BC704780B485B000AF78604FF000035E
:103D4000FB734FF00003BB604FF47053C4F20103E8
:103D50001B681A467B6802EA0303BB604FF470538A
:103D6000C4F201035B691A467B6802EA0303002B75
:103D700006D0BB68002B03D04FF00103FB7302E0B9
:103D80004FF00003FB73FB7B184607F11407BD4699
:103D900080BC704780B483B000AF78604FF470533C
:103DA000C4F201037A685A6107F10C07BD4680BC72
:103DB000704700BF80B483B000AF78604FF46D43AC
:103DC000CEF200037A6842F0BE6242F42022DA604A
:103DD00007F10C07BD4680BC704700BF80B485B0BA
:103DE00000AF78604FF00003FB734FF00003BB732C
:103DF0004FF00F037B737B68DB78002B47D04FF4C9
:103E00006D43CEF20003DB686FEA030303F4E06363
:103E10004FEA1323FB73FB7BC3F10403BB737A7B71
:103E2000FB7B42FA03F37B737B685B781A46BB7BB0
:103E300002FA03F3FB737B689A787B7B02EA030345
:103E4000DAB2FB7B42EA0303FB73FB7B4FEA03130B
:103E5000FB734FF46143CEF200037A6812789B182B
:103E6000FA7B83F800234FF46143CEF200037A68B3
:103E700012784FEA5212D2B27968097801F01F0124
:103E80004FF0010000FA01F143F8221014E04FF462
:103E90006143CEF200037A6812784FEA5212D2B22E
:103EA0007968097801F01F014FF0010000FA01F173
:103EB00002F1200243F8221007F11407BD4680BC2E
:103EC000704700BF80B584B000AF78604FF000034A
:103ED000FB607B6803F00703002B05D07B6823F0B1
:103EE000070303F108037B60FEF73AF941F67853C4
:103EF000C2F200031A687B68D21841F6FF339A4277
:103F000024D841F67853C2F200031A687B68D218AD
:103F100041F67853C2F200031B689A4216D941F663
:103F20007853C2F200031A6840F27813C2F2000319
:103F3000D318FB6041F67853C2F200031A687B681D
:103F4000D21841F67853C2F200031A60FEF71AF94C
:103F5000FB68002B01D1FDF719FCFB68184607F13F
:103F60001007BD4680BD00BF80B483B000AF78604D
:103F700007F10C07BD4680BC704700BF80B400AF9E
:103F800041F67853C2F200031B68C3F5E0531846AC
:103F9000BD4680BC704700BF80B485B000AF78607C
:103FA00039604FF00003FB817B681B88FB817A68D6
:103FB0004FF00003C4F201039A421FD07A684FF415
:103FC0008063C4F201039A4218D07B68B3F1804F3A
:103FD00014D07A684FF48063C4F200039A420DD083
:103FE0007A684FF40063C4F200039A4206D07A68FC
:103FF0004FF44063C4F200039A4209D1FB8923F0D5
:104000007003FB813B685A88FB8942EA0303FB810A
:104010007A684FF48053C4F200039A4210D07A6851
:104020004FF4A053C4F200039A4209D0FB8923F451
:104030004073FB813B681A89FB8942EA0303FB81D9
:104040007B68FA891A803B685A687B68DA623B6849
:104050001A887B681A857A684FF00003C4F201035E
:104060009A4206D07A684FF48063C4F201039A4200
:1040700004D13B689B7A1A467B681A867B684FF0AE
:1040800001029A8207F11407BD4680BC704700BF49
:1040900080B483B000AF78607B684FF0FF325A6025
:1040A0007B684FF000021A807B684FF000021A8193
:1040B0007B684FF000025A807B684FF000029A72D2
:1040C00007F10C07BD4680BC704700BF80B483B0C9
:1040D00000AF78600B46FB70FB78002B08D07B6844
:1040E0001B889BB243F001039AB27B681A8007E0F9
:1040F0007B681B889BB223F001039AB27B681A800D
:1041000007F10C07BD4680BC704700BF80B483B088
:1041100000AF786013460A467A807B707B78002B6C
:1041200009D07B689B899AB27B8842EA03039AB2E2
:104130007B689A810BE07B689B899AB27B886FEAE7
:1041400003039BB202EA03039AB27B689A8107F1E8
:104150000C07BD4680BC704780B485B000AF786066
:104160000B467B804FF00003FB734FF00003BB81D5
:104170004FF000037B817B681B8A9AB27B8802EA3E
:104180000303BB817B689B899AB27B8802EA0303A5
:104190007B81BB89002B06D07B89002B03D04FF09D
:1041A0000103FB7302E04FF00003FB73FB7B184637
:1041B00007F11407BD4680BC704700BF80B483B0D0
:1041C00000AF78600B467B807B886FEA03039AB26E
:1041D0007B681A8207F10C07BD4680BC704700BFA0
:1041E00080B487B000AFF86079813A81FB804FF0EE
:1041F0000003FB824FF00003BB824FF000037B8281
:10420000FB681B89FB82FB681B8BBB82FB681B8CDA
:104210007B82FB8A23F00703FB82FA8A7B8942EACE
:104220000303FB82BB8A23F4407323F00303BB82A6
:10423000BB8A43F4807343F00103BB827B8A23F083
:1042400022037B82FB884FEA03139AB23B8942EA3E
:1042500003039AB27B8A42EA03037B82FB68FA8AF1
:104260001A81FB68BA8A1A83FB687A8A1A8407F172
:104270001C07BD4680BC704780B400AFBFF34F8FB2
:104280004FF46D42CEF200024FF46D43CEF20003C4
:10429000DB6803F4E0614FF00403C0F2FA5341EA33
:1042A0000303D360BFF34F8FFEE700BF80B500AFBD
:1042B0004FF48030FFF73EFD0346002B05D0FFF79B
:1042C000DBFF4FF48030FFF765FD80BD032A70B43B
:1042D00004460D4612D941EA000313F0030F0FD133
:1042E0000B46044651F8045B50F8046BAE4204D10F
:1042F000043A0446032A0B46F2D81D46104672B112
:1043000021782B78994209D1501E2A4638B114F8E9
:10431000011F013812F8013F9942F7D0C81A70BC4A
:10432000704700BF032A2DE9F00109D82AB1002304
:10433000CC5CC45401339342FAD1BDE8F00170471C
:104340000B468218014603E02478013301F8014B43
:1043500011F0030F1C46F7D113F003055DD06E4238
:10436000C5F1040CED009B594FEACC0C08E0043475
:10437000A7593B4607FA0CF748EA070741F8047BC0
:10438000571A23FA05F8032FF1DC03E014F8013B78
:1043900001F8013B8A42F9D8CFE753F8404C41F885
:1043A000404C53F83C4C41F83C4C53F8384C41F8E5
:1043B000384C53F8344C41F8344C53F8304C41F8F5
:1043C000304C53F82C4C41F82C4C53F8284C41F805
:1043D000284C53F8244C41F8244C53F8204C41F815
:1043E000204C53F81C4C41F81C4C53F8184C41F825
:1043F000184C53F8144C41F8144C53F8104C41F835
:10440000104C53F80C4C41F80C4C53F8084C41F844
:10441000084C53F8044C41F8044C561A1D460C46FF
:10442000403340313F2EB8DC2B460FE053F8101CD0
:1044300044F8101C53F80C1C44F80C1C53F8081CCE
:1044400044F8081C53F8041C44F8041C161B1D46B1
:1044500010330F2E214604F11004E7DC2B4602E056
:10446000246841F8044B551A1C46032D03F104033C
:10447000F6DC8FE7032AC9B270B408D82AB1034624
:10448000121803F8011B9342FBD170BC70478218CD
:10449000044601E004F8011B14F0030FFAD14FF0B9
:1044A000013303FB01F31FE044F8403C44F83C3C7B
:1044B00044F8383C44F8343C44F8303C44F82C3C54
:1044C00044F8283C44F8243C44F8203C44F81C3C84
:1044D00044F8183C44F8143C44F8103C44F80C3CB4
:1044E00044F8083C44F8043C161B254640343F2E53
:1044F000DADC2C4607E044F8103C44F80C3C44F865
:10450000083C44F8043C161B254610340F2EF2DC00
:1045100001E045F8043B541B032CFADC01E005F8EC
:10452000011B9542FBD3B0E741EA000313F0030FF0
:10453000034670B414BF00250125032A94BF00254B
:1045400005F001050C460646CDB9B2B10D783446EA
:10455000531E04F8015B55B1B21C73B111F8015F31
:104560001446013B02F8015C0132002DF5D123B164
:104570000022013B04F8012BFBD170BC704721469F
:1045800054F8045BA5F1013626EA050616F0803FD3
:1045900005D1043A43F8045B032A2146EFD81E46AE
:1045A000D3E700BF50524F544F000000444F4C5FC0
:1045B00050524F434553530049444C4500000000BE
:1045C000A5A5A5A5A5A5A5A5A5A5A5A5A5A5A5A59B
:0445D000A5A5A5A553
:1045D4003C3C444F4C3E3E00000000000000000004
:1045E400000000003C2D2D2047454F5350484552B4
:1045F400415F32303134202D2D3E00000000000098
:1046040000000000000000000000000030303030E6
:10461400310000000514C0FF01000000000000008C
:104624000102030401020304060708090080008054
:0C46340000800080FFFFFFFFAAAAAAAAD6
:0400000508000000EF
:00000001FF
